{"abi":[{"type":"constructor","inputs":[{"name":"_agentCoin","type":"address","internalType":"address"},{"name":"_arbitrator","type":"address","internalType":"address"},{"name":"_feeRecipient","type":"address","internalType":"address"}],"stateMutability":"nonpayable"},{"type":"function","name":"AUTO_COMPLETE_TIMEOUT","inputs":[],"outputs":[{"name":"","type":"uint256","internalType":"uint256"}],"stateMutability":"view"},{"type":"function","name":"COOLDOWN_PERIOD","inputs":[],"outputs":[{"name":"","type":"uint256","internalType":"uint256"}],"stateMutability":"view"},{"type":"function","name":"DISPUTE_TIMEOUT","inputs":[],"outputs":[{"name":"","type":"uint256","internalType":"uint256"}],"stateMutability":"view"},{"type":"function","name":"MONTHLY_MINT_LIMIT","inputs":[],"outputs":[{"name":"","type":"uint256","internalType":"uint256"}],"stateMutability":"view"},{"type":"function","name":"REPUTATION_THRESHOLD","inputs":[],"outputs":[{"name":"","type":"uint256","internalType":"uint256"}],"stateMutability":"view"},{"type":"function","name":"acceptWork","inputs":[{"name":"workId","type":"uint256","internalType":"uint256"}],"outputs":[],"stateMutability":"nonpayable"},{"type":"function","name":"agentCoin","inputs":[],"outputs":[{"name":"","type":"address","internalType":"contract IAgentCoin"}],"stateMutability":"view"},{"type":"function","name":"agentStats","inputs":[{"name":"","type":"address","internalType":"address"}],"outputs":[{"name":"completedWorks","type":"uint256","internalType":"uint256"},{"name":"disputes","type":"uint256","internalType":"uint256"},{"name":"wins","type":"uint256","internalType":"uint256"},{"name":"totalEarned","type":"uint256","internalType":"uint256"},{"name":"reputationScore","type":"uint256","internalType":"uint256"},{"name":"lastWorkTime","type":"uint256","internalType":"uint256"},{"name":"mintedThisMonth","type":"uint256","internalType":"uint256"},{"name":"lastMintReset","type":"uint256","internalType":"uint256"}],"stateMutability":"view"},{"type":"function","name":"agentWorks","inputs":[{"name":"","type":"address","internalType":"address"},{"name":"","type":"uint256","internalType":"uint256"}],"outputs":[{"name":"","type":"uint256","internalType":"uint256"}],"stateMutability":"view"},{"type":"function","name":"arbitrator","inputs":[],"outputs":[{"name":"","type":"address","internalType":"address"}],"stateMutability":"view"},{"type":"function","name":"canWorkTogether","inputs":[{"name":"requester","type":"address","internalType":"address"},{"name":"worker","type":"address","internalType":"address"}],"outputs":[{"name":"","type":"bool","internalType":"bool"}],"stateMutability":"view"},{"type":"function","name":"cancelWork","inputs":[{"name":"workId","type":"uint256","internalType":"uint256"}],"outputs":[],"stateMutability":"nonpayable"},{"type":"function","name":"completeWork","inputs":[{"name":"workId","type":"uint256","internalType":"uint256"}],"outputs":[],"stateMutability":"nonpayable"},{"type":"function","name":"confirmWorkCompletion","inputs":[{"name":"workId","type":"uint256","internalType":"uint256"}],"outputs":[],"stateMutability":"nonpayable"},{"type":"function","name":"createWork","inputs":[{"name":"worker","type":"address","internalType":"address"},{"name":"description","type":"string","internalType":"string"},{"name":"amount","type":"uint256","internalType":"uint256"},{"name":"paymentType","type":"uint8","internalType":"enum WorkRegistry.PaymentType"},{"name":"deadline","type":"uint256","internalType":"uint256"}],"outputs":[{"name":"workId","type":"uint256","internalType":"uint256"}],"stateMutability":"payable"},{"type":"function","name":"disputeWork","inputs":[{"name":"workId","type":"uint256","internalType":"uint256"}],"outputs":[],"stateMutability":"nonpayable"},{"type":"function","name":"emergencyWithdraw","inputs":[{"name":"token","type":"address","internalType":"address"},{"name":"amount","type":"uint256","internalType":"uint256"}],"outputs":[],"stateMutability":"nonpayable"},{"type":"function","name":"escrowFee","inputs":[],"outputs":[{"name":"","type":"uint256","internalType":"uint256"}],"stateMutability":"view"},{"type":"function","name":"feeRecipient","inputs":[],"outputs":[{"name":"","type":"address","internalType":"address"}],"stateMutability":"view"},{"type":"function","name":"getAgentStats","inputs":[{"name":"agent","type":"address","internalType":"address"}],"outputs":[{"name":"","type":"tuple","internalType":"struct WorkRegistry.AgentStats","components":[{"name":"completedWorks","type":"uint256","internalType":"uint256"},{"name":"disputes","type":"uint256","internalType":"uint256"},{"name":"wins","type":"uint256","internalType":"uint256"},{"name":"totalEarned","type":"uint256","internalType":"uint256"},{"name":"reputationScore","type":"uint256","internalType":"uint256"},{"name":"lastWorkTime","type":"uint256","internalType":"uint256"},{"name":"mintedThisMonth","type":"uint256","internalType":"uint256"},{"name":"lastMintReset","type":"uint256","internalType":"uint256"}]}],"stateMutability":"view"},{"type":"function","name":"getAgentWorks","inputs":[{"name":"agent","type":"address","internalType":"address"}],"outputs":[{"name":"","type":"uint256[]","internalType":"uint256[]"}],"stateMutability":"view"},{"type":"function","name":"getRemainingMintAllowance","inputs":[{"name":"agent","type":"address","internalType":"address"}],"outputs":[{"name":"","type":"uint256","internalType":"uint256"}],"stateMutability":"view"},{"type":"function","name":"getWork","inputs":[{"name":"workId","type":"uint256","internalType":"uint256"}],"outputs":[{"name":"","type":"tuple","internalType":"struct WorkRegistry.Work","components":[{"name":"id","type":"uint256","internalType":"uint256"},{"name":"requester","type":"address","internalType":"address"},{"name":"worker","type":"address","internalType":"address"},{"name":"description","type":"string","internalType":"string"},{"name":"amount","type":"uint256","internalType":"uint256"},{"name":"paymentType","type":"uint8","internalType":"enum WorkRegistry.PaymentType"},{"name":"deadline","type":"uint256","internalType":"uint256"},{"name":"status","type":"uint8","internalType":"enum WorkRegistry.WorkStatus"},{"name":"createdAt","type":"uint256","internalType":"uint256"},{"name":"completedAt","type":"uint256","internalType":"uint256"},{"name":"isDisputed","type":"bool","internalType":"bool"},{"name":"disputeWinner","type":"address","internalType":"address"}]}],"stateMutability":"view"},{"type":"function","name":"lastJobBetweenAgents","inputs":[{"name":"","type":"address","internalType":"address"},{"name":"","type":"address","internalType":"address"}],"outputs":[{"name":"","type":"uint256","internalType":"uint256"}],"stateMutability":"view"},{"type":"function","name":"mintRate","inputs":[],"outputs":[{"name":"","type":"uint256","internalType":"uint256"}],"stateMutability":"view"},{"type":"function","name":"nextWorkId","inputs":[],"outputs":[{"name":"","type":"uint256","internalType":"uint256"}],"stateMutability":"view"},{"type":"function","name":"owner","inputs":[],"outputs":[{"name":"","type":"address","internalType":"address"}],"stateMutability":"view"},{"type":"function","name":"pause","inputs":[],"outputs":[],"stateMutability":"nonpayable"},{"type":"function","name":"paused","inputs":[],"outputs":[{"name":"","type":"bool","internalType":"bool"}],"stateMutability":"view"},{"type":"function","name":"resolveDispute","inputs":[{"name":"workId","type":"uint256","internalType":"uint256"},{"name":"winner","type":"address","internalType":"address"}],"outputs":[],"stateMutability":"nonpayable"},{"type":"function","name":"setArbitrator","inputs":[{"name":"newArbitrator","type":"address","internalType":"address"}],"outputs":[],"stateMutability":"nonpayable"},{"type":"function","name":"setEscrowFee","inputs":[{"name":"newFee","type":"uint256","internalType":"uint256"}],"outputs":[],"stateMutability":"nonpayable"},{"type":"function","name":"setFeeRecipient","inputs":[{"name":"newFeeRecipient","type":"address","internalType":"address"}],"outputs":[],"stateMutability":"nonpayable"},{"type":"function","name":"setMintRate","inputs":[{"name":"newRate","type":"uint256","internalType":"uint256"}],"outputs":[],"stateMutability":"nonpayable"},{"type":"function","name":"unpause","inputs":[],"outputs":[],"stateMutability":"nonpayable"},{"type":"function","name":"works","inputs":[{"name":"","type":"uint256","internalType":"uint256"}],"outputs":[{"name":"id","type":"uint256","internalType":"uint256"},{"name":"requester","type":"address","internalType":"address"},{"name":"worker","type":"address","internalType":"address"},{"name":"description","type":"string","internalType":"string"},{"name":"amount","type":"uint256","internalType":"uint256"},{"name":"paymentType","type":"uint8","internalType":"enum WorkRegistry.PaymentType"},{"name":"deadline","type":"uint256","internalType":"uint256"},{"name":"status","type":"uint8","internalType":"enum WorkRegistry.WorkStatus"},{"name":"createdAt","type":"uint256","internalType":"uint256"},{"name":"completedAt","type":"uint256","internalType":"uint256"},{"name":"isDisputed","type":"bool","internalType":"bool"},{"name":"disputeWinner","type":"address","internalType":"address"}],"stateMutability":"view"},{"type":"event","name":"DisputeResolved","inputs":[{"name":"workId","type":"uint256","indexed":true,"internalType":"uint256"},{"name":"winner","type":"address","indexed":true,"internalType":"address"}],"anonymous":false},{"type":"event","name":"Paused","inputs":[{"name":"account","type":"address","indexed":false,"internalType":"address"}],"anonymous":false},{"type":"event","name":"PaymentReleased","inputs":[{"name":"workId","type":"uint256","indexed":true,"internalType":"uint256"},{"name":"recipient","type":"address","indexed":true,"internalType":"address"},{"name":"amount","type":"uint256","indexed":false,"internalType":"uint256"}],"anonymous":false},{"type":"event","name":"ReputationUpdated","inputs":[{"name":"agent","type":"address","indexed":true,"internalType":"address"},{"name":"newScore","type":"uint256","indexed":false,"internalType":"uint256"}],"anonymous":false},{"type":"event","name":"TokensMinted","inputs":[{"name":"workId","type":"uint256","indexed":true,"internalType":"uint256"},{"name":"recipient","type":"address","indexed":true,"internalType":"address"},{"name":"amount","type":"uint256","indexed":false,"internalType":"uint256"}],"anonymous":false},{"type":"event","name":"Unpaused","inputs":[{"name":"account","type":"address","indexed":false,"internalType":"address"}],"anonymous":false},{"type":"event","name":"WorkAccepted","inputs":[{"name":"workId","type":"uint256","indexed":true,"internalType":"uint256"},{"name":"worker","type":"address","indexed":true,"internalType":"address"}],"anonymous":false},{"type":"event","name":"WorkCompleted","inputs":[{"name":"workId","type":"uint256","indexed":true,"internalType":"uint256"},{"name":"completer","type":"address","indexed":true,"internalType":"address"}],"anonymous":false},{"type":"event","name":"WorkCreated","inputs":[{"name":"workId","type":"uint256","indexed":true,"internalType":"uint256"},{"name":"requester","type":"address","indexed":true,"internalType":"address"},{"name":"worker","type":"address","indexed":true,"internalType":"address"},{"name":"amount","type":"uint256","indexed":false,"internalType":"uint256"},{"name":"paymentType","type":"uint8","indexed":false,"internalType":"enum WorkRegistry.PaymentType"},{"name":"deadline","type":"uint256","indexed":false,"internalType":"uint256"}],"anonymous":false},{"type":"event","name":"WorkDisputed","inputs":[{"name":"workId","type":"uint256","indexed":true,"internalType":"uint256"},{"name":"disputer","type":"address","indexed":true,"internalType":"address"}],"anonymous":false},{"type":"error","name":"EnforcedPause","inputs":[]},{"type":"error","name":"ExpectedPause","inputs":[]},{"type":"error","name":"ReentrancyGuardReentrantCall","inputs":[]}],"bytecode":{"object":"0x60a06040526001600555670de0b6b3a76400006006556019600755348015610025575f5ffd5b506040516162ab3803806162ab83398181016040528101906100479190610341565b600161006561005a6102b160201b60201c565b6102da60201b60201c565b5f01819055505f73ffffffffffffffffffffffffffffffffffffffff168373ffffffffffffffffffffffffffffffffffffffff16036100d9576040517f08c379a00000000000000000000000000000000000000000000000000000000081526004016100d0906103eb565b60405180910390fd5b5f73ffffffffffffffffffffffffffffffffffffffff168273ffffffffffffffffffffffffffffffffffffffff1603610147576040517f08c379a000000000000000000000000000000000000000000000000000000000815260040161013e90610453565b60405180910390fd5b5f73ffffffffffffffffffffffffffffffffffffffff168173ffffffffffffffffffffffffffffffffffffffff16036101b5576040517f08c379a00000000000000000000000000000000000000000000000000000000081526004016101ac906104bb565b60405180910390fd5b8273ffffffffffffffffffffffffffffffffffffffff1660808173ffffffffffffffffffffffffffffffffffffffff16815250508160095f6101000a81548173ffffffffffffffffffffffffffffffffffffffff021916908373ffffffffffffffffffffffffffffffffffffffff1602179055508060085f6101000a81548173ffffffffffffffffffffffffffffffffffffffff021916908373ffffffffffffffffffffffffffffffffffffffff160217905550335f60016101000a81548173ffffffffffffffffffffffffffffffffffffffff021916908373ffffffffffffffffffffffffffffffffffffffff1602179055505050506104d9565b5f7f9b779b17422d0df92223018b32b4d1fa46e071723d6817e2486d003becc55f005f1b905090565b5f819050919050565b5f5ffd5b5f73ffffffffffffffffffffffffffffffffffffffff82169050919050565b5f610310826102e7565b9050919050565b61032081610306565b811461032a575f5ffd5b50565b5f8151905061033b81610317565b92915050565b5f5f5f60608486031215610358576103576102e3565b5b5f6103658682870161032d565b93505060206103768682870161032d565b92505060406103878682870161032d565b9150509250925092565b5f82825260208201905092915050565b7f496e76616c696420746f6b656e206164647265737300000000000000000000005f82015250565b5f6103d5601583610391565b91506103e0826103a1565b602082019050919050565b5f6020820190508181035f830152610402816103c9565b9050919050565b7f496e76616c69642061726269747261746f7220616464726573730000000000005f82015250565b5f61043d601a83610391565b915061044882610409565b602082019050919050565b5f6020820190508181035f83015261046a81610431565b9050919050565b7f496e76616c69642066656520726563697069656e7420616464726573730000005f82015250565b5f6104a5601d83610391565b91506104b082610471565b602082019050919050565b5f6020820190508181035f8301526104d281610499565b9050919050565b608051615d9061051b5f395f8181610f090152818161193601528181611a1a01528181612a7201528181613033015281816138ec0152613cbf0152615d905ff3fe60806040526004361061020e575f3560e01c80638456cb5911610117578063b0eefabe1161009f578063ca0dcf161161006e578063ca0dcf1614610784578063dbe2193f146107ae578063e3c32cce146107d6578063e74b981b14610812578063fdd9f3a11461083a5761020e565b8063b0eefabe146106b1578063b5695b38146106d9578063c392368514610715578063c66e1dd51461073d5761020e565b80638da5cb5b116100e65780638da5cb5b146105cf578063943699d0146105f957806395ccea67146106235780639e5b720e1461064b578063a2fa0e5d146106875761020e565b80638456cb591461053f578063873a2878146105555780638a08df8b1461057d5780638c4ae9aa146105a55761020e565b8063486265c61161019a5780636a5b428b116101695780636a5b428b146104565780636cc6cde1146104805780636dbacf49146104aa5780636e99d52f146104ed57806380ae082d146105175761020e565b8063486265c61461039e5780634e533b78146103c8578063573d21f3146103f05780635c975abb1461042c5761020e565b8063222d45b3116101e1578063222d45b3146102c85780633f4ba83a1461030457806340c3f0cc1461031a57806342296a141461034a57806346904840146103745761020e565b8063054ab371146102125780630e33599d1461024e57806314081e391461027657806318c18f631461029e575b5f5ffd5b34801561021d575f5ffd5b5061023860048036038101906102339190613f86565b610876565b6040516102459190614071565b60405180910390f35b348015610259575f5ffd5b50610274600480360381019061026f91906140bb565b610909565b005b348015610281575f5ffd5b5061029c600480360381019061029791906140f9565b6110ca565b005b3480156102a9575f5ffd5b506102b26111a8565b6040516102bf9190614133565b60405180910390f35b3480156102d3575f5ffd5b506102ee60048036038101906102e99190613f86565b6111af565b6040516102fb9190614133565b60405180910390f35b34801561030f575f5ffd5b5061031861124e565b005b610334600480360381019061032f91906142ab565b6112e7565b6040516103419190614133565b60405180910390f35b348015610355575f5ffd5b5061035e611b92565b60405161036b9190614133565b60405180910390f35b34801561037f575f5ffd5b50610388611b97565b604051610395919061434d565b60405180910390f35b3480156103a9575f5ffd5b506103b2611bbc565b6040516103bf9190614133565b60405180910390f35b3480156103d3575f5ffd5b506103ee60048036038101906103e991906140f9565b611bc3565b005b3480156103fb575f5ffd5b50610416600480360381019061041191906140f9565b611e64565b60405161042391906145a9565b60405180910390f35b348015610437575f5ffd5b50610440612130565b60405161044d91906145d8565b60405180910390f35b348015610461575f5ffd5b5061046a612144565b6040516104779190614133565b60405180910390f35b34801561048b575f5ffd5b5061049461214a565b6040516104a1919061434d565b60405180910390f35b3480156104b5575f5ffd5b506104d060048036038101906104cb9190613f86565b61216f565b6040516104e49897969594939291906145f1565b60405180910390f35b3480156104f8575f5ffd5b506105016121b3565b60405161050e9190614133565b60405180910390f35b348015610522575f5ffd5b5061053d600480360381019061053891906140f9565b6121ba565b005b34801561054a575f5ffd5b5061055361234e565b005b348015610560575f5ffd5b5061057b600480360381019061057691906140f9565b6123e7565b005b348015610588575f5ffd5b506105a3600480360381019061059e91906140f9565b6126eb565b005b3480156105b0575f5ffd5b506105b9612a45565b6040516105c69190614133565b60405180910390f35b3480156105da575f5ffd5b506105e3612a4b565b6040516105f0919061434d565b60405180910390f35b348015610604575f5ffd5b5061060d612a70565b60405161061a91906146c8565b60405180910390f35b34801561062e575f5ffd5b50610649600480360381019061064491906146e1565b612a94565b005b348015610656575f5ffd5b50610671600480360381019061066c919061471f565b612c32565b60405161067e9190614133565b60405180910390f35b348015610692575f5ffd5b5061069b612c52565b6040516106a89190614133565b60405180910390f35b3480156106bc575f5ffd5b506106d760048036038101906106d29190613f86565b612c5f565b005b3480156106e4575f5ffd5b506106ff60048036038101906106fa9190613f86565b612d9f565b60405161070c91906147fd565b60405180910390f35b348015610720575f5ffd5b5061073b600480360381019061073691906140f9565b612e46565b005b348015610748575f5ffd5b50610763600480360381019061075e91906140f9565b6131af565b60405161077b9c9b9a9998979695949392919061487d565b60405180910390f35b34801561078f575f5ffd5b50610798613313565b6040516107a59190614133565b60405180910390f35b3480156107b9575f5ffd5b506107d460048036038101906107cf91906140f9565b613319565b005b3480156107e1575f5ffd5b506107fc60048036038101906107f791906146e1565b6133f4565b6040516108099190614133565b60405180910390f35b34801561081d575f5ffd5b5061083860048036038101906108339190613f86565b61341f565b005b348015610845575f5ffd5b50610860600480360381019061085b919061471f565b61355f565b60405161086d91906145d8565b60405180910390f35b606060045f8373ffffffffffffffffffffffffffffffffffffffff1673ffffffffffffffffffffffffffffffffffffffff1681526020019081526020015f208054806020026020016040519081016040528092919081815260200182805480156108fd57602002820191905f5260205f20905b8154815260200190600101908083116108e9575b50505050509050919050565b815f8111801561091a575060055481105b610959576040517f08c379a000000000000000000000000000000000000000000000000000000000815260040161095090614986565b60405180910390fd5b60095f9054906101000a900473ffffffffffffffffffffffffffffffffffffffff1673ffffffffffffffffffffffffffffffffffffffff163373ffffffffffffffffffffffffffffffffffffffff16146109e8576040517f08c379a00000000000000000000000000000000000000000000000000000000081526004016109df906149ee565b60405180910390fd5b6109f06135f2565b5f60015f8581526020019081526020015f20905060036005811115610a1857610a176143d5565b5b816007015f9054906101000a900460ff166005811115610a3b57610a3a6143d5565b5b14610a7b576040517f08c379a0000000000000000000000000000000000000000000000000000000008152600401610a7290614a56565b60405180910390fd5b806001015f9054906101000a900473ffffffffffffffffffffffffffffffffffffffff1673ffffffffffffffffffffffffffffffffffffffff168373ffffffffffffffffffffffffffffffffffffffff161480610b265750806002015f9054906101000a900473ffffffffffffffffffffffffffffffffffffffff1673ffffffffffffffffffffffffffffffffffffffff168373ffffffffffffffffffffffffffffffffffffffff16145b610b65576040517f08c379a0000000000000000000000000000000000000000000000000000000008152600401610b5c90614abe565b60405180910390fd5b6004816007015f6101000a81548160ff02191690836005811115610b8c57610b8b6143d5565b5b02179055508281600a0160016101000a81548173ffffffffffffffffffffffffffffffffffffffff021916908373ffffffffffffffffffffffffffffffffffffffff160217905550806002015f9054906101000a900473ffffffffffffffffffffffffffffffffffffffff1673ffffffffffffffffffffffffffffffffffffffff168373ffffffffffffffffffffffffffffffffffffffff1603610d1f5760025f826002015f9054906101000a900473ffffffffffffffffffffffffffffffffffffffff1673ffffffffffffffffffffffffffffffffffffffff1673ffffffffffffffffffffffffffffffffffffffff1681526020019081526020015f206002015f815480929190610c9d90614b09565b919050555060025f826001015f9054906101000a900473ffffffffffffffffffffffffffffffffffffffff1673ffffffffffffffffffffffffffffffffffffffff1673ffffffffffffffffffffffffffffffffffffffff1681526020019081526020015f206001015f815480929190610d1590614b09565b9190505550610e10565b60025f826001015f9054906101000a900473ffffffffffffffffffffffffffffffffffffffff1673ffffffffffffffffffffffffffffffffffffffff1673ffffffffffffffffffffffffffffffffffffffff1681526020019081526020015f206002015f815480929190610d9290614b09565b919050555060025f826002015f9054906101000a900473ffffffffffffffffffffffffffffffffffffffff1673ffffffffffffffffffffffffffffffffffffffff1673ffffffffffffffffffffffffffffffffffffffff1681526020019081526020015f206001015f815480929190610e0a90614b09565b91905055505b610e3c816002015f9054906101000a900473ffffffffffffffffffffffffffffffffffffffff16613633565b610e68816001015f9054906101000a900473ffffffffffffffffffffffffffffffffffffffff16613633565b806002015f9054906101000a900473ffffffffffffffffffffffffffffffffffffffff1673ffffffffffffffffffffffffffffffffffffffff168373ffffffffffffffffffffffffffffffffffffffff1603610ecc57610ec784613748565b611080565b5f6001811115610edf57610ede6143d5565b5b816005015f9054906101000a900460ff166001811115610f0257610f016143d5565b5b0361107f577f000000000000000000000000000000000000000000000000000000000000000073ffffffffffffffffffffffffffffffffffffffff1663a9059cbb826001015f9054906101000a900473ffffffffffffffffffffffffffffffffffffffff1683600401546040518363ffffffff1660e01b8152600401610f89929190614b50565b6020604051808303815f875af1158015610fa5573d5f5f3e3d5ffd5b505050506040513d601f19601f82011682018060405250810190610fc99190614ba1565b611008576040517f08c379a0000000000000000000000000000000000000000000000000000000008152600401610fff90614c16565b60405180910390fd5b806001015f9054906101000a900473ffffffffffffffffffffffffffffffffffffffff1673ffffffffffffffffffffffffffffffffffffffff16847f21d71db5be59bb9fa133895586b7404307dd33fb93b16db09dc6f1d9d7d231b083600401546040516110769190614133565b60405180910390a35b5b8273ffffffffffffffffffffffffffffffffffffffff16847ff77ceb5e091d2da041bc760667f9d5fe7a756949eaf29250ad0e60ca6f4c27d960405160405180910390a350505050565b5f60019054906101000a900473ffffffffffffffffffffffffffffffffffffffff1673ffffffffffffffffffffffffffffffffffffffff163373ffffffffffffffffffffffffffffffffffffffff1614611159576040517f08c379a000000000000000000000000000000000000000000000000000000000815260040161115090614c7e565b60405180910390fd5b6101f481111561119e576040517f08c379a000000000000000000000000000000000000000000000000000000000815260040161119590614ce6565b60405180910390fd5b8060078190555050565b6212750081565b5f5f60025f8473ffffffffffffffffffffffffffffffffffffffff1673ffffffffffffffffffffffffffffffffffffffff1681526020019081526020015f2090505f8160060154905062278d00826007015461120b9190614d04565b4210611215575f90505b683635c9adc5dea00000811061122f575f92505050611249565b80683635c9adc5dea000006112449190614d37565b925050505b919050565b5f60019054906101000a900473ffffffffffffffffffffffffffffffffffffffff1673ffffffffffffffffffffffffffffffffffffffff163373ffffffffffffffffffffffffffffffffffffffff16146112dd576040517f08c379a00000000000000000000000000000000000000000000000000000000081526004016112d490614c7e565b60405180910390fd5b6112e5613a78565b565b5f6112f06135f2565b6112f8613ad8565b5f73ffffffffffffffffffffffffffffffffffffffff168673ffffffffffffffffffffffffffffffffffffffff1603611366576040517f08c379a000000000000000000000000000000000000000000000000000000000815260040161135d90614db4565b60405180910390fd5b3373ffffffffffffffffffffffffffffffffffffffff168673ffffffffffffffffffffffffffffffffffffffff16036113d4576040517f08c379a00000000000000000000000000000000000000000000000000000000081526004016113cb90614e1c565b60405180910390fd5b5f855111611417576040517f08c379a000000000000000000000000000000000000000000000000000000000815260040161140e90614e84565b60405180910390fd5b5f8411611459576040517f08c379a000000000000000000000000000000000000000000000000000000000815260040161145090614eec565b60405180910390fd5b42821161149b576040517f08c379a000000000000000000000000000000000000000000000000000000000815260040161149290614f54565b60405180910390fd5b6201518060035f3373ffffffffffffffffffffffffffffffffffffffff1673ffffffffffffffffffffffffffffffffffffffff1681526020019081526020015f205f8873ffffffffffffffffffffffffffffffffffffffff1673ffffffffffffffffffffffffffffffffffffffff1681526020019081526020015f20546115229190614d04565b421015611564576040517f08c379a000000000000000000000000000000000000000000000000000000000815260040161155b90614fbc565b60405180910390fd5b600180811115611577576115766143d5565b5b83600181111561158a576115896143d5565b5b0361159a576115998685613afa565b5b60055f8154809291906115ac90614b09565b9190505590506040518061018001604052808281526020013373ffffffffffffffffffffffffffffffffffffffff1681526020018773ffffffffffffffffffffffffffffffffffffffff16815260200186815260200185815260200184600181111561161b5761161a6143d5565b5b81526020018381526020015f6005811115611639576116386143d5565b5b81526020014281526020015f81526020015f151581526020015f73ffffffffffffffffffffffffffffffffffffffff1681525060015f8381526020019081526020015f205f820151815f01556020820151816001015f6101000a81548173ffffffffffffffffffffffffffffffffffffffff021916908373ffffffffffffffffffffffffffffffffffffffff1602179055506040820151816002015f6101000a81548173ffffffffffffffffffffffffffffffffffffffff021916908373ffffffffffffffffffffffffffffffffffffffff160217905550606082015181600301908161172691906151df565b506080820151816004015560a0820151816005015f6101000a81548160ff0219169083600181111561175b5761175a6143d5565b5b021790555060c0820151816006015560e0820151816007015f6101000a81548160ff02191690836005811115611794576117936143d5565b5b02179055506101008201518160080155610120820151816009015561014082015181600a015f6101000a81548160ff02191690831515021790555061016082015181600a0160016101000a81548173ffffffffffffffffffffffffffffffffffffffff021916908373ffffffffffffffffffffffffffffffffffffffff16021790555090505060045f3373ffffffffffffffffffffffffffffffffffffffff1673ffffffffffffffffffffffffffffffffffffffff1681526020019081526020015f2081908060018154018082558091505060019003905f5260205f20015f909190919091505560045f8773ffffffffffffffffffffffffffffffffffffffff1673ffffffffffffffffffffffffffffffffffffffff1681526020019081526020015f2081908060018154018082558091505060019003905f5260205f20015f90919091909150555f60018111156118ef576118ee6143d5565b5b836001811115611902576119016143d5565b5b03611b17575f6127106007548661191991906152ae565b611923919061531c565b90505f81866119329190614d04565b90507f000000000000000000000000000000000000000000000000000000000000000073ffffffffffffffffffffffffffffffffffffffff166323b872dd3330846040518463ffffffff1660e01b81526004016119919392919061534c565b6020604051808303815f875af11580156119ad573d5f5f3e3d5ffd5b505050506040513d601f19601f820116820180604052508101906119d19190614ba1565b611a10576040517f08c379a0000000000000000000000000000000000000000000000000000000008152600401611a07906153cb565b60405180910390fd5b5f821115611b14577f000000000000000000000000000000000000000000000000000000000000000073ffffffffffffffffffffffffffffffffffffffff1663a9059cbb60085f9054906101000a900473ffffffffffffffffffffffffffffffffffffffff16846040518363ffffffff1660e01b8152600401611a94929190614b50565b6020604051808303815f875af1158015611ab0573d5f5f3e3d5ffd5b505050506040513d601f19601f82011682018060405250810190611ad49190614ba1565b611b13576040517f08c379a0000000000000000000000000000000000000000000000000000000008152600401611b0a90615433565b60405180910390fd5b5b50505b8573ffffffffffffffffffffffffffffffffffffffff163373ffffffffffffffffffffffffffffffffffffffff16827f7be3a8fb10fee5ed4036ee48e543b79ff8350f5f5fb6784d0c024924b5d068d3878787604051611b7993929190615451565b60405180910390a4611b89613bbc565b95945050505050565b606481565b60085f9054906101000a900473ffffffffffffffffffffffffffffffffffffffff1681565b62093a8081565b805f81118015611bd4575060055481105b611c13576040517f08c379a0000000000000000000000000000000000000000000000000000000008152600401611c0a90614986565b60405180910390fd5b611c1b6135f2565b5f60015f8481526020019081526020015f20905060016005811115611c4357611c426143d5565b5b816007015f9054906101000a900460ff166005811115611c6657611c656143d5565b5b14611ca6576040517f08c379a0000000000000000000000000000000000000000000000000000000008152600401611c9d906154d0565b60405180910390fd5b806002015f9054906101000a900473ffffffffffffffffffffffffffffffffffffffff1673ffffffffffffffffffffffffffffffffffffffff163373ffffffffffffffffffffffffffffffffffffffff1603611d36576002816007015f6101000a81548160ff02191690836005811115611d2357611d226143d5565b5b0217905550428160090181905550611e12565b621275008160060154611d499190614d04565b421015611d8b576040517f08c379a0000000000000000000000000000000000000000000000000000000008152600401611d829061555e565b60405180910390fd5b80600a015f9054906101000a900460ff1615611ddc576040517f08c379a0000000000000000000000000000000000000000000000000000000008152600401611dd3906155ec565b60405180910390fd5b6002816007015f6101000a81548160ff02191690836005811115611e0357611e026143d5565b5b02179055504281600901819055505b3373ffffffffffffffffffffffffffffffffffffffff16837ff2063f41103e70b2ce51ce8728d30addd447c937a45db5098291a80d419ea36660405160405180910390a3611e5f83613748565b505050565b611e6c613e20565b815f81118015611e7d575060055481105b611ebc576040517f08c379a0000000000000000000000000000000000000000000000000000000008152600401611eb390614986565b60405180910390fd5b60015f8481526020019081526020015f20604051806101800160405290815f8201548152602001600182015f9054906101000a900473ffffffffffffffffffffffffffffffffffffffff1673ffffffffffffffffffffffffffffffffffffffff1673ffffffffffffffffffffffffffffffffffffffff168152602001600282015f9054906101000a900473ffffffffffffffffffffffffffffffffffffffff1673ffffffffffffffffffffffffffffffffffffffff1673ffffffffffffffffffffffffffffffffffffffff168152602001600382018054611f9c90615007565b80601f0160208091040260200160405190810160405280929190818152602001828054611fc890615007565b80156120135780601f10611fea57610100808354040283529160200191612013565b820191905f5260205f20905b815481529060010190602001808311611ff657829003601f168201915b5050505050815260200160048201548152602001600582015f9054906101000a900460ff16600181111561204a576120496143d5565b5b600181111561205c5761205b6143d5565b5b815260200160068201548152602001600782015f9054906101000a900460ff16600581111561208e5761208d6143d5565b5b60058111156120a05761209f6143d5565b5b81526020016008820154815260200160098201548152602001600a82015f9054906101000a900460ff16151515158152602001600a820160019054906101000a900473ffffffffffffffffffffffffffffffffffffffff1673ffffffffffffffffffffffffffffffffffffffff1673ffffffffffffffffffffffffffffffffffffffff1681525050915050919050565b5f5f5f9054906101000a900460ff16905090565b60075481565b60095f9054906101000a900473ffffffffffffffffffffffffffffffffffffffff1681565b6002602052805f5260405f205f91509050805f0154908060010154908060020154908060030154908060040154908060050154908060060154908060070154905088565b6201518081565b805f811180156121cb575060055481105b61220a576040517f08c379a000000000000000000000000000000000000000000000000000000000815260040161220190614986565b60405180910390fd5b813373ffffffffffffffffffffffffffffffffffffffff1660015f8381526020019081526020015f206001015f9054906101000a900473ffffffffffffffffffffffffffffffffffffffff1673ffffffffffffffffffffffffffffffffffffffff16146122ac576040517f08c379a00000000000000000000000000000000000000000000000000000000081526004016122a390615654565b60405180910390fd5b6122b46135f2565b5f60015f8581526020019081526020015f209050600260058111156122dc576122db6143d5565b5b816007015f9054906101000a900460ff1660058111156122ff576122fe6143d5565b5b1461233f576040517f08c379a0000000000000000000000000000000000000000000000000000000008152600401612336906156bc565b60405180910390fd5b61234884613748565b50505050565b5f60019054906101000a900473ffffffffffffffffffffffffffffffffffffffff1673ffffffffffffffffffffffffffffffffffffffff163373ffffffffffffffffffffffffffffffffffffffff16146123dd576040517f08c379a00000000000000000000000000000000000000000000000000000000081526004016123d490614c7e565b60405180910390fd5b6123e5613bd6565b565b805f811180156123f8575060055481105b612437576040517f08c379a000000000000000000000000000000000000000000000000000000000815260040161242e90614986565b60405180910390fd5b813373ffffffffffffffffffffffffffffffffffffffff1660015f8381526020019081526020015f206002015f9054906101000a900473ffffffffffffffffffffffffffffffffffffffff1673ffffffffffffffffffffffffffffffffffffffff16146124d9576040517f08c379a00000000000000000000000000000000000000000000000000000000081526004016124d090615724565b60405180910390fd5b6124e16135f2565b5f60015f8581526020019081526020015f2090505f6005811115612508576125076143d5565b5b816007015f9054906101000a900460ff16600581111561252b5761252a6143d5565b5b1461256b576040517f08c379a0000000000000000000000000000000000000000000000000000000008152600401612562906157b2565b60405180910390fd5b80600601544211156125b2576040517f08c379a00000000000000000000000000000000000000000000000000000000081526004016125a99061581a565b60405180910390fd5b6001816007015f6101000a81548160ff021916908360058111156125d9576125d86143d5565b5b02179055504260035f836001015f9054906101000a900473ffffffffffffffffffffffffffffffffffffffff1673ffffffffffffffffffffffffffffffffffffffff1673ffffffffffffffffffffffffffffffffffffffff1681526020019081526020015f205f836002015f9054906101000a900473ffffffffffffffffffffffffffffffffffffffff1673ffffffffffffffffffffffffffffffffffffffff1673ffffffffffffffffffffffffffffffffffffffff1681526020019081526020015f20819055503373ffffffffffffffffffffffffffffffffffffffff16847f225a40b451573519c9e51e06fbd40b274a9216afb026e215bf13eea293f4131a60405160405180910390a350505050565b805f811180156126fc575060055481105b61273b576040517f08c379a000000000000000000000000000000000000000000000000000000000815260040161273290614986565b60405180910390fd5b815f60015f8381526020019081526020015f2090503373ffffffffffffffffffffffffffffffffffffffff16816001015f9054906101000a900473ffffffffffffffffffffffffffffffffffffffff1673ffffffffffffffffffffffffffffffffffffffff1614806127fb57503373ffffffffffffffffffffffffffffffffffffffff16816002015f9054906101000a900473ffffffffffffffffffffffffffffffffffffffff1673ffffffffffffffffffffffffffffffffffffffff16145b61283a576040517f08c379a0000000000000000000000000000000000000000000000000000000008152600401612831906158a8565b60405180910390fd5b6128426135f2565b5f60015f8681526020019081526020015f2090506001600581111561286a576128696143d5565b5b816007015f9054906101000a900460ff16600581111561288d5761288c6143d5565b5b14806128cd5750600260058111156128a8576128a76143d5565b5b816007015f9054906101000a900460ff1660058111156128cb576128ca6143d5565b5b145b61290c576040517f08c379a000000000000000000000000000000000000000000000000000000000815260040161290390615910565b60405180910390fd5b80600a015f9054906101000a900460ff161561295d576040517f08c379a000000000000000000000000000000000000000000000000000000000815260040161295490615978565b60405180910390fd5b62093a8081600601546129709190614d04565b4211156129b2576040517f08c379a00000000000000000000000000000000000000000000000000000000081526004016129a9906159e0565b60405180910390fd5b6003816007015f6101000a81548160ff021916908360058111156129d9576129d86143d5565b5b0217905550600181600a015f6101000a81548160ff0219169083151502179055503373ffffffffffffffffffffffffffffffffffffffff16857f103024640a8d7266ba5c5f396cfe25bd5887d6067f18e8b016547b543aa4039c60405160405180910390a35050505050565b60055481565b5f60019054906101000a900473ffffffffffffffffffffffffffffffffffffffff1681565b7f000000000000000000000000000000000000000000000000000000000000000081565b5f60019054906101000a900473ffffffffffffffffffffffffffffffffffffffff1673ffffffffffffffffffffffffffffffffffffffff163373ffffffffffffffffffffffffffffffffffffffff1614612b23576040517f08c379a0000000000000000000000000000000000000000000000000000000008152600401612b1a90614c7e565b60405180910390fd5b5f73ffffffffffffffffffffffffffffffffffffffff168273ffffffffffffffffffffffffffffffffffffffff1603612b91576040517f08c379a0000000000000000000000000000000000000000000000000000000008152600401612b8890615a48565b60405180910390fd5b8173ffffffffffffffffffffffffffffffffffffffff1663a9059cbb5f60019054906101000a900473ffffffffffffffffffffffffffffffffffffffff16836040518363ffffffff1660e01b8152600401612bed929190614b50565b6020604051808303815f875af1158015612c09573d5f5f3e3d5ffd5b505050506040513d601f19601f82011682018060405250810190612c2d9190614ba1565b505050565b6003602052815f5260405f20602052805f5260405f205f91509150505481565b683635c9adc5dea0000081565b5f60019054906101000a900473ffffffffffffffffffffffffffffffffffffffff1673ffffffffffffffffffffffffffffffffffffffff163373ffffffffffffffffffffffffffffffffffffffff1614612cee576040517f08c379a0000000000000000000000000000000000000000000000000000000008152600401612ce590614c7e565b60405180910390fd5b5f73ffffffffffffffffffffffffffffffffffffffff168173ffffffffffffffffffffffffffffffffffffffff1603612d5c576040517f08c379a0000000000000000000000000000000000000000000000000000000008152600401612d5390615ab0565b60405180910390fd5b8060095f6101000a81548173ffffffffffffffffffffffffffffffffffffffff021916908373ffffffffffffffffffffffffffffffffffffffff16021790555050565b612da7613ede565b60025f8373ffffffffffffffffffffffffffffffffffffffff1673ffffffffffffffffffffffffffffffffffffffff1681526020019081526020015f20604051806101000160405290815f82015481526020016001820154815260200160028201548152602001600382015481526020016004820154815260200160058201548152602001600682015481526020016007820154815250509050919050565b805f81118015612e57575060055481105b612e96576040517f08c379a0000000000000000000000000000000000000000000000000000000008152600401612e8d90614986565b60405180910390fd5b813373ffffffffffffffffffffffffffffffffffffffff1660015f8381526020019081526020015f206001015f9054906101000a900473ffffffffffffffffffffffffffffffffffffffff1673ffffffffffffffffffffffffffffffffffffffff1614612f38576040517f08c379a0000000000000000000000000000000000000000000000000000000008152600401612f2f90615654565b60405180910390fd5b612f406135f2565b5f60015f8581526020019081526020015f2090505f6005811115612f6757612f666143d5565b5b816007015f9054906101000a900460ff166005811115612f8a57612f896143d5565b5b14612fca576040517f08c379a0000000000000000000000000000000000000000000000000000000008152600401612fc190615b18565b60405180910390fd5b6005816007015f6101000a81548160ff02191690836005811115612ff157612ff06143d5565b5b02179055505f6001811115613009576130086143d5565b5b816005015f9054906101000a900460ff16600181111561302c5761302b6143d5565b5b036131a9577f000000000000000000000000000000000000000000000000000000000000000073ffffffffffffffffffffffffffffffffffffffff1663a9059cbb826001015f9054906101000a900473ffffffffffffffffffffffffffffffffffffffff1683600401546040518363ffffffff1660e01b81526004016130b3929190614b50565b6020604051808303815f875af11580156130cf573d5f5f3e3d5ffd5b505050506040513d601f19601f820116820180604052508101906130f39190614ba1565b613132576040517f08c379a000000000000000000000000000000000000000000000000000000000815260040161312990614c16565b60405180910390fd5b806001015f9054906101000a900473ffffffffffffffffffffffffffffffffffffffff1673ffffffffffffffffffffffffffffffffffffffff16847f21d71db5be59bb9fa133895586b7404307dd33fb93b16db09dc6f1d9d7d231b083600401546040516131a09190614133565b60405180910390a35b50505050565b6001602052805f5260405f205f91509050805f015490806001015f9054906101000a900473ffffffffffffffffffffffffffffffffffffffff1690806002015f9054906101000a900473ffffffffffffffffffffffffffffffffffffffff169080600301805461321e90615007565b80601f016020809104026020016040519081016040528092919081815260200182805461324a90615007565b80156132955780601f1061326c57610100808354040283529160200191613295565b820191905f5260205f20905b81548152906001019060200180831161327857829003601f168201915b505050505090806004015490806005015f9054906101000a900460ff1690806006015490806007015f9054906101000a900460ff169080600801549080600901549080600a015f9054906101000a900460ff169080600a0160019054906101000a900473ffffffffffffffffffffffffffffffffffffffff1690508c565b60065481565b5f60019054906101000a900473ffffffffffffffffffffffffffffffffffffffff1673ffffffffffffffffffffffffffffffffffffffff163373ffffffffffffffffffffffffffffffffffffffff16146133a8576040517f08c379a000000000000000000000000000000000000000000000000000000000815260040161339f90614c7e565b60405180910390fd5b5f81116133ea576040517f08c379a00000000000000000000000000000000000000000000000000000000081526004016133e190615b80565b60405180910390fd5b8060068190555050565b6004602052815f5260405f20818154811061340d575f80fd5b905f5260205f20015f91509150505481565b5f60019054906101000a900473ffffffffffffffffffffffffffffffffffffffff1673ffffffffffffffffffffffffffffffffffffffff163373ffffffffffffffffffffffffffffffffffffffff16146134ae576040517f08c379a00000000000000000000000000000000000000000000000000000000081526004016134a590614c7e565b60405180910390fd5b5f73ffffffffffffffffffffffffffffffffffffffff168173ffffffffffffffffffffffffffffffffffffffff160361351c576040517f08c379a000000000000000000000000000000000000000000000000000000000815260040161351390615be8565b60405180910390fd5b8060085f6101000a81548173ffffffffffffffffffffffffffffffffffffffff021916908373ffffffffffffffffffffffffffffffffffffffff16021790555050565b5f6201518060035f8573ffffffffffffffffffffffffffffffffffffffff1673ffffffffffffffffffffffffffffffffffffffff1681526020019081526020015f205f8473ffffffffffffffffffffffffffffffffffffffff1673ffffffffffffffffffffffffffffffffffffffff1681526020019081526020015f20546135e79190614d04565b421015905092915050565b6135fa612130565b15613631576040517fd93c066500000000000000000000000000000000000000000000000000000000815260040160405180910390fd5b565b5f60025f8373ffffffffffffffffffffffffffffffffffffffff1673ffffffffffffffffffffffffffffffffffffffff1681526020019081526020015f2090505f600a825f015461368491906152ae565b90505f6014836001015461369891906152ae565b90505f600584600201546136ac91906152ae565b90508181846136bb9190614d04565b11156136e5578181846136ce9190614d04565b6136d89190614d37565b84600401819055506136ef565b5f84600401819055505b8473ffffffffffffffffffffffffffffffffffffffff167ffc577563f1b9a0461e24abef1e1fcc0d33d3d881f20b5df6dda59de4aae2c82185600401546040516137399190614133565b60405180910390a25050505050565b5f60015f8381526020019081526020015f2090505f816002015f9054906101000a900473ffffffffffffffffffffffffffffffffffffffff1690505f8260040154905060025f8373ffffffffffffffffffffffffffffffffffffffff1673ffffffffffffffffffffffffffffffffffffffff1681526020019081526020015f205f015f8154809291906137da90614b09565b91905055508060025f8473ffffffffffffffffffffffffffffffffffffffff1673ffffffffffffffffffffffffffffffffffffffff1681526020019081526020015f206003015f82825461382e9190614d04565b925050819055504260025f8473ffffffffffffffffffffffffffffffffffffffff1673ffffffffffffffffffffffffffffffffffffffff1681526020019081526020015f206005018190555061388382613633565b6138af836001015f9054906101000a900473ffffffffffffffffffffffffffffffffffffffff16613633565b5f60018111156138c2576138c16143d5565b5b836005015f9054906101000a900460ff1660018111156138e5576138e46143d5565b5b03613a18577f000000000000000000000000000000000000000000000000000000000000000073ffffffffffffffffffffffffffffffffffffffff1663a9059cbb83836040518363ffffffff1660e01b8152600401613945929190614b50565b6020604051808303815f875af1158015613961573d5f5f3e3d5ffd5b505050506040513d601f19601f820116820180604052508101906139859190614ba1565b6139c4576040517f08c379a00000000000000000000000000000000000000000000000000000000081526004016139bb90615c50565b60405180910390fd5b8173ffffffffffffffffffffffffffffffffffffffff16847f21d71db5be59bb9fa133895586b7404307dd33fb93b16db09dc6f1d9d7d231b083604051613a0b9190614133565b60405180910390a3613a72565b613a228282613c37565b8173ffffffffffffffffffffffffffffffffffffffff16847f5c8e94c72da12a6d6a1213edafd788896df5fd2d6527a9adeb11f8e5d0be1c4c83604051613a699190614133565b60405180910390a35b50505050565b613a80613d4a565b5f5f5f6101000a81548160ff0219169083151502179055507f5db9ee0a495bf2e6ff9c91a7834c1ba4fdd244a5e8aa4e537bd38aeae4b073aa613ac1613d8a565b604051613ace919061434d565b60405180910390a1565b613ae0613d91565b6002613af2613aed613dd2565b613dfb565b5f0181905550565b5f60025f8473ffffffffffffffffffffffffffffffffffffffff1673ffffffffffffffffffffffffffffffffffffffff1681526020019081526020015f2090505f8160060154905062278d008260070154613b559190614d04565b4210613b5f575f90505b683635c9adc5dea000008382613b759190614d04565b1115613bb6576040517f08c379a0000000000000000000000000000000000000000000000000000000008152600401613bad90615cb8565b60405180910390fd5b50505050565b6001613bce613bc9613dd2565b613dfb565b5f0181905550565b613bde6135f2565b60015f5f6101000a81548160ff0219169083151502179055507f62e78cea01bee320cd4e420270b5ea74000d11b0c9f74754ebdbfc544b05a258613c20613d8a565b604051613c2d919061434d565b60405180910390a1565b5f60025f8473ffffffffffffffffffffffffffffffffffffffff1673ffffffffffffffffffffffffffffffffffffffff1681526020019081526020015f20905062278d008160070154613c8a9190614d04565b4210613ca3575f81600601819055504281600701819055505b81816006015f828254613cb69190614d04565b925050819055507f000000000000000000000000000000000000000000000000000000000000000073ffffffffffffffffffffffffffffffffffffffff1663d3fc986484846040518363ffffffff1660e01b8152600401613d18929190615d20565b5f604051808303815f87803b158015613d2f575f5ffd5b505af1158015613d41573d5f5f3e3d5ffd5b50505050505050565b613d52612130565b613d88576040517f8dfc202b00000000000000000000000000000000000000000000000000000000815260040160405180910390fd5b565b5f33905090565b613d99613e04565b15613dd0576040517f3ee5aeb500000000000000000000000000000000000000000000000000000000815260040160405180910390fd5b565b5f7f9b779b17422d0df92223018b32b4d1fa46e071723d6817e2486d003becc55f005f1b905090565b5f819050919050565b5f6002613e17613e12613dd2565b613dfb565b5f015414905090565b6040518061018001604052805f81526020015f73ffffffffffffffffffffffffffffffffffffffff1681526020015f73ffffffffffffffffffffffffffffffffffffffff168152602001606081526020015f81526020015f6001811115613e8a57613e896143d5565b5b81526020015f81526020015f6005811115613ea857613ea76143d5565b5b81526020015f81526020015f81526020015f151581526020015f73ffffffffffffffffffffffffffffffffffffffff1681525090565b6040518061010001604052805f81526020015f81526020015f81526020015f81526020015f81526020015f81526020015f81526020015f81525090565b5f604051905090565b5f5ffd5b5f5ffd5b5f73ffffffffffffffffffffffffffffffffffffffff82169050919050565b5f613f5582613f2c565b9050919050565b613f6581613f4b565b8114613f6f575f5ffd5b50565b5f81359050613f8081613f5c565b92915050565b5f60208284031215613f9b57613f9a613f24565b5b5f613fa884828501613f72565b91505092915050565b5f81519050919050565b5f82825260208201905092915050565b5f819050602082019050919050565b5f819050919050565b613fec81613fda565b82525050565b5f613ffd8383613fe3565b60208301905092915050565b5f602082019050919050565b5f61401f82613fb1565b6140298185613fbb565b935061403483613fcb565b805f5b8381101561406457815161404b8882613ff2565b975061405683614009565b925050600181019050614037565b5085935050505092915050565b5f6020820190508181035f8301526140898184614015565b905092915050565b61409a81613fda565b81146140a4575f5ffd5b50565b5f813590506140b581614091565b92915050565b5f5f604083850312156140d1576140d0613f24565b5b5f6140de858286016140a7565b92505060206140ef85828601613f72565b9150509250929050565b5f6020828403121561410e5761410d613f24565b5b5f61411b848285016140a7565b91505092915050565b61412d81613fda565b82525050565b5f6020820190506141465f830184614124565b92915050565b5f5ffd5b5f5ffd5b5f601f19601f8301169050919050565b7f4e487b71000000000000000000000000000000000000000000000000000000005f52604160045260245ffd5b61419a82614154565b810181811067ffffffffffffffff821117156141b9576141b8614164565b5b80604052505050565b5f6141cb613f1b565b90506141d78282614191565b919050565b5f67ffffffffffffffff8211156141f6576141f5614164565b5b6141ff82614154565b9050602081019050919050565b828183375f83830152505050565b5f61422c614227846141dc565b6141c2565b90508281526020810184848401111561424857614247614150565b5b61425384828561420c565b509392505050565b5f82601f83011261426f5761426e61414c565b5b813561427f84826020860161421a565b91505092915050565b60028110614294575f5ffd5b50565b5f813590506142a581614288565b92915050565b5f5f5f5f5f60a086880312156142c4576142c3613f24565b5b5f6142d188828901613f72565b955050602086013567ffffffffffffffff8111156142f2576142f1613f28565b5b6142fe8882890161425b565b945050604061430f888289016140a7565b935050606061432088828901614297565b9250506080614331888289016140a7565b9150509295509295909350565b61434781613f4b565b82525050565b5f6020820190506143605f83018461433e565b92915050565b61436f81613f4b565b82525050565b5f81519050919050565b5f82825260208201905092915050565b8281835e5f83830152505050565b5f6143a782614375565b6143b1818561437f565b93506143c181856020860161438f565b6143ca81614154565b840191505092915050565b7f4e487b71000000000000000000000000000000000000000000000000000000005f52602160045260245ffd5b60028110614413576144126143d5565b5b50565b5f81905061442382614402565b919050565b5f61443282614416565b9050919050565b61444281614428565b82525050565b60068110614459576144586143d5565b5b50565b5f81905061446982614448565b919050565b5f6144788261445c565b9050919050565b6144888161446e565b82525050565b5f8115159050919050565b6144a28161448e565b82525050565b5f61018083015f8301516144be5f860182613fe3565b5060208301516144d16020860182614366565b5060408301516144e46040860182614366565b50606083015184820360608601526144fc828261439d565b91505060808301516145116080860182613fe3565b5060a083015161452460a0860182614439565b5060c083015161453760c0860182613fe3565b5060e083015161454a60e086018261447f565b5061010083015161455f610100860182613fe3565b50610120830151614574610120860182613fe3565b50610140830151614589610140860182614499565b5061016083015161459e610160860182614366565b508091505092915050565b5f6020820190508181035f8301526145c181846144a8565b905092915050565b6145d28161448e565b82525050565b5f6020820190506145eb5f8301846145c9565b92915050565b5f610100820190506146055f83018b614124565b614612602083018a614124565b61461f6040830189614124565b61462c6060830188614124565b6146396080830187614124565b61464660a0830186614124565b61465360c0830185614124565b61466060e0830184614124565b9998505050505050505050565b5f819050919050565b5f61469061468b61468684613f2c565b61466d565b613f2c565b9050919050565b5f6146a182614676565b9050919050565b5f6146b282614697565b9050919050565b6146c2816146a8565b82525050565b5f6020820190506146db5f8301846146b9565b92915050565b5f5f604083850312156146f7576146f6613f24565b5b5f61470485828601613f72565b9250506020614715858286016140a7565b9150509250929050565b5f5f6040838503121561473557614734613f24565b5b5f61474285828601613f72565b925050602061475385828601613f72565b9150509250929050565b61010082015f8201516147725f850182613fe3565b5060208201516147856020850182613fe3565b5060408201516147986040850182613fe3565b5060608201516147ab6060850182613fe3565b5060808201516147be6080850182613fe3565b5060a08201516147d160a0850182613fe3565b5060c08201516147e460c0850182613fe3565b5060e08201516147f760e0850182613fe3565b50505050565b5f610100820190506148115f83018461475d565b92915050565b5f82825260208201905092915050565b5f61483182614375565b61483b8185614817565b935061484b81856020860161438f565b61485481614154565b840191505092915050565b61486881614428565b82525050565b6148778161446e565b82525050565b5f610180820190506148915f83018f614124565b61489e602083018e61433e565b6148ab604083018d61433e565b81810360608301526148bd818c614827565b90506148cc608083018b614124565b6148d960a083018a61485f565b6148e660c0830189614124565b6148f360e083018861486e565b614901610100830187614124565b61490f610120830186614124565b61491d6101408301856145c9565b61492b61016083018461433e565b9d9c50505050505050505050505050565b7f496e76616c696420776f726b20494400000000000000000000000000000000005f82015250565b5f614970600f83614817565b915061497b8261493c565b602082019050919050565b5f6020820190508181035f83015261499d81614964565b9050919050565b7f4f6e6c792061726269747261746f722063616e2063616c6c20746869730000005f82015250565b5f6149d8601d83614817565b91506149e3826149a4565b602082019050919050565b5f6020820190508181035f830152614a05816149cc565b9050919050565b7f576f726b206e6f742064697370757465640000000000000000000000000000005f82015250565b5f614a40601183614817565b9150614a4b82614a0c565b602082019050919050565b5f6020820190508181035f830152614a6d81614a34565b9050919050565b7f57696e6e6572206d7573742062652061207061727469636970616e74000000005f82015250565b5f614aa8601c83614817565b9150614ab382614a74565b602082019050919050565b5f6020820190508181035f830152614ad581614a9c565b9050919050565b7f4e487b71000000000000000000000000000000000000000000000000000000005f52601160045260245ffd5b5f614b1382613fda565b91507fffffffffffffffffffffffffffffffffffffffffffffffffffffffffffffffff8203614b4557614b44614adc565b5b600182019050919050565b5f604082019050614b635f83018561433e565b614b706020830184614124565b9392505050565b614b808161448e565b8114614b8a575f5ffd5b50565b5f81519050614b9b81614b77565b92915050565b5f60208284031215614bb657614bb5613f24565b5b5f614bc384828501614b8d565b91505092915050565b7f526566756e64206661696c6564000000000000000000000000000000000000005f82015250565b5f614c00600d83614817565b9150614c0b82614bcc565b602082019050919050565b5f6020820190508181035f830152614c2d81614bf4565b9050919050565b7f4e6f74206f776e657200000000000000000000000000000000000000000000005f82015250565b5f614c68600983614817565b9150614c7382614c34565b602082019050919050565b5f6020820190508181035f830152614c9581614c5c565b9050919050565b7f4665652063616e6e6f74206578636565642035250000000000000000000000005f82015250565b5f614cd0601483614817565b9150614cdb82614c9c565b602082019050919050565b5f6020820190508181035f830152614cfd81614cc4565b9050919050565b5f614d0e82613fda565b9150614d1983613fda565b9250828201905080821115614d3157614d30614adc565b5b92915050565b5f614d4182613fda565b9150614d4c83613fda565b9250828203905081811115614d6457614d63614adc565b5b92915050565b7f496e76616c696420776f726b65722061646472657373000000000000000000005f82015250565b5f614d9e601683614817565b9150614da982614d6a565b602082019050919050565b5f6020820190508181035f830152614dcb81614d92565b9050919050565b7f43616e6e6f742063726561746520776f726b20666f7220796f757273656c66005f82015250565b5f614e06601f83614817565b9150614e1182614dd2565b602082019050919050565b5f6020820190508181035f830152614e3381614dfa565b9050919050565b7f4465736372697074696f6e2063616e6e6f7420626520656d70747900000000005f82015250565b5f614e6e601b83614817565b9150614e7982614e3a565b602082019050919050565b5f6020820190508181035f830152614e9b81614e62565b9050919050565b7f416d6f756e74206d7573742062652067726561746572207468616e20300000005f82015250565b5f614ed6601d83614817565b9150614ee182614ea2565b602082019050919050565b5f6020820190508181035f830152614f0381614eca565b9050919050565b7f446561646c696e65206d75737420626520696e207468652066757475726500005f82015250565b5f614f3e601e83614817565b9150614f4982614f0a565b602082019050919050565b5f6020820190508181035f830152614f6b81614f32565b9050919050565b7f436f6f6c646f776e20706572696f64206e6f7420656c617073656400000000005f82015250565b5f614fa6601b83614817565b9150614fb182614f72565b602082019050919050565b5f6020820190508181035f830152614fd381614f9a565b9050919050565b7f4e487b71000000000000000000000000000000000000000000000000000000005f52602260045260245ffd5b5f600282049050600182168061501e57607f821691505b60208210810361503157615030614fda565b5b50919050565b5f819050815f5260205f209050919050565b5f6020601f8301049050919050565b5f82821b905092915050565b5f600883026150937fffffffffffffffffffffffffffffffffffffffffffffffffffffffffffffffff82615058565b61509d8683615058565b95508019841693508086168417925050509392505050565b5f6150cf6150ca6150c584613fda565b61466d565b613fda565b9050919050565b5f819050919050565b6150e8836150b5565b6150fc6150f4826150d6565b848454615064565b825550505050565b5f5f905090565b615113615104565b61511e8184846150df565b505050565b5f5b82811015615144576151395f82840161510b565b600181019050615125565b505050565b601f82111561519757828211156151965761516381615037565b61516c83615049565b61517585615049565b6020861015615182575f90505b80830161519182840382615123565b505050505b5b505050565b5f82821c905092915050565b5f6151b75f198460080261519c565b1980831691505092915050565b5f6151cf83836151a8565b9150826002028217905092915050565b6151e882614375565b67ffffffffffffffff81111561520157615200614164565b5b61520b8254615007565b615216828285615149565b5f60209050601f831160018114615247575f8415615235578287015190505b61523f85826151c4565b8655506152a6565b601f19841661525586615037565b5f5b8281101561527c57848901518255600182019150602085019450602081019050615257565b868310156152995784890151615295601f8916826151a8565b8355505b6001600288020188555050505b505050505050565b5f6152b882613fda565b91506152c383613fda565b92508282026152d181613fda565b915082820484148315176152e8576152e7614adc565b5b5092915050565b7f4e487b71000000000000000000000000000000000000000000000000000000005f52601260045260245ffd5b5f61532682613fda565b915061533183613fda565b925082615341576153406152ef565b5b828204905092915050565b5f60608201905061535f5f83018661433e565b61536c602083018561433e565b6153796040830184614124565b949350505050565b7f546f6b656e207472616e73666572206661696c656400000000000000000000005f82015250565b5f6153b5601583614817565b91506153c082615381565b602082019050919050565b5f6020820190508181035f8301526153e2816153a9565b9050919050565b7f466565207472616e73666572206661696c6564000000000000000000000000005f82015250565b5f61541d601383614817565b9150615428826153e9565b602082019050919050565b5f6020820190508181035f83015261544a81615411565b9050919050565b5f6060820190506154645f830186614124565b615471602083018561485f565b61547e6040830184614124565b949350505050565b7f576f726b206e6f7420696e2070726f67726573730000000000000000000000005f82015250565b5f6154ba601483614817565b91506154c582615486565b602082019050919050565b5f6020820190508181035f8301526154e7816154ae565b9050919050565b7f4175746f2d636f6d706c6574652074696d656f7574206e6f74207265616368655f8201527f6400000000000000000000000000000000000000000000000000000000000000602082015250565b5f615548602183614817565b9150615553826154ee565b604082019050919050565b5f6020820190508181035f8301526155758161553c565b9050919050565b7f43616e6e6f74206175746f2d636f6d706c65746520646973707574656420776f5f8201527f726b000000000000000000000000000000000000000000000000000000000000602082015250565b5f6155d6602283614817565b91506155e18261557c565b604082019050919050565b5f6020820190508181035f830152615603816155ca565b9050919050565b7f4f6e6c79207265717565737465722063616e2063616c6c2074686973000000005f82015250565b5f61563e601c83614817565b91506156498261560a565b602082019050919050565b5f6020820190508181035f83015261566b81615632565b9050919050565b7f576f726b206e6f7420636f6d706c6574656400000000000000000000000000005f82015250565b5f6156a6601283614817565b91506156b182615672565b602082019050919050565b5f6020820190508181035f8301526156d38161569a565b9050919050565b7f4f6e6c7920776f726b65722063616e2063616c6c2074686973000000000000005f82015250565b5f61570e601983614817565b9150615719826156da565b602082019050919050565b5f6020820190508181035f83015261573b81615702565b9050919050565b7f576f726b206e6f7420617661696c61626c6520666f7220616363657074616e635f8201527f6500000000000000000000000000000000000000000000000000000000000000602082015250565b5f61579c602183614817565b91506157a782615742565b604082019050919050565b5f6020820190508181035f8301526157c981615790565b9050919050565b7f576f726b20646561646c696e65207061737365640000000000000000000000005f82015250565b5f615804601483614817565b915061580f826157d0565b602082019050919050565b5f6020820190508181035f830152615831816157f8565b9050919050565b7f4f6e6c7920776f726b207061727469636970616e74732063616e2063616c6c205f8201527f7468697300000000000000000000000000000000000000000000000000000000602082015250565b5f615892602483614817565b915061589d82615838565b604082019050919050565b5f6020820190508181035f8301526158bf81615886565b9050919050565b7f576f726b206e6f742064697370757461626c65000000000000000000000000005f82015250565b5f6158fa601383614817565b9150615905826158c6565b602082019050919050565b5f6020820190508181035f830152615927816158ee565b9050919050565b7f576f726b20616c726561647920646973707574656400000000000000000000005f82015250565b5f615962601583614817565b915061596d8261592e565b602082019050919050565b5f6020820190508181035f83015261598f81615956565b9050919050565b7f4469737075746520706572696f642065787069726564000000000000000000005f82015250565b5f6159ca601683614817565b91506159d582615996565b602082019050919050565b5f6020820190508181035f8301526159f7816159be565b9050919050565b7f496e76616c696420746f6b656e206164647265737300000000000000000000005f82015250565b5f615a32601583614817565b9150615a3d826159fe565b602082019050919050565b5f6020820190508181035f830152615a5f81615a26565b9050919050565b7f496e76616c69642061726269747261746f7220616464726573730000000000005f82015250565b5f615a9a601a83614817565b9150615aa582615a66565b602082019050919050565b5f6020820190508181035f830152615ac781615a8e565b9050919050565b7f576f726b2063616e6e6f742062652063616e63656c6c656400000000000000005f82015250565b5f615b02601883614817565b9150615b0d82615ace565b602082019050919050565b5f6020820190508181035f830152615b2f81615af6565b9050919050565b7f4d696e742072617465206d75737420626520706f7369746976650000000000005f82015250565b5f615b6a601a83614817565b9150615b7582615b36565b602082019050919050565b5f6020820190508181035f830152615b9781615b5e565b9050919050565b7f496e76616c69642066656520726563697069656e7420616464726573730000005f82015250565b5f615bd2601d83614817565b9150615bdd82615b9e565b602082019050919050565b5f6020820190508181035f830152615bff81615bc6565b9050919050565b7f5061796d656e74207472616e73666572206661696c65640000000000000000005f82015250565b5f615c3a601783614817565b9150615c4582615c06565b602082019050919050565b5f6020820190508181035f830152615c6781615c2e565b9050919050565b7f4d6f6e74686c79206d696e74206c696d697420657863656564656400000000005f82015250565b5f615ca2601b83614817565b9150615cad82615c6e565b602082019050919050565b5f6020820190508181035f830152615ccf81615c96565b9050919050565b7f776f726b5f636f6d706c657465640000000000000000000000000000000000005f82015250565b5f615d0a600e83614817565b9150615d1582615cd6565b602082019050919050565b5f606082019050615d335f83018561433e565b615d406020830184614124565b8181036040830152615d5181615cfe565b9050939250505056fea2646970667358221220ad43c48702e74b10cf6fa5f748970e097c252d6e3a06dc8b6608a6a7e6812e3e64736f6c63430008210033","linkReferences":{}},"methodIdentifiers":{"AUTO_COMPLETE_TIMEOUT()":"18c18f63","COOLDOWN_PERIOD()":"6e99d52f","DISPUTE_TIMEOUT()":"486265c6","MONTHLY_MINT_LIMIT()":"a2fa0e5d","REPUTATION_THRESHOLD()":"42296a14","acceptWork(uint256)":"873a2878","agentCoin()":"943699d0","agentStats(address)":"6dbacf49","agentWorks(address,uint256)":"e3c32cce","arbitrator()":"6cc6cde1","canWorkTogether(address,address)":"fdd9f3a1","cancelWork(uint256)":"c3923685","completeWork(uint256)":"4e533b78","confirmWorkCompletion(uint256)":"80ae082d","createWork(address,string,uint256,uint8,uint256)":"40c3f0cc","disputeWork(uint256)":"8a08df8b","emergencyWithdraw(address,uint256)":"95ccea67","escrowFee()":"6a5b428b","feeRecipient()":"46904840","getAgentStats(address)":"b5695b38","getAgentWorks(address)":"054ab371","getRemainingMintAllowance(address)":"222d45b3","getWork(uint256)":"573d21f3","lastJobBetweenAgents(address,address)":"9e5b720e","mintRate()":"ca0dcf16","nextWorkId()":"8c4ae9aa","owner()":"8da5cb5b","pause()":"8456cb59","paused()":"5c975abb","resolveDispute(uint256,address)":"0e33599d","setArbitrator(address)":"b0eefabe","setEscrowFee(uint256)":"14081e39","setFeeRecipient(address)":"e74b981b","setMintRate(uint256)":"dbe2193f","unpause()":"3f4ba83a","works(uint256)":"c66e1dd5"},"id":2}