{"abi":[{"type":"constructor","inputs":[],"stateMutability":"nonpayable"},{"type":"function","name":"DEFAULT_ADMIN_ROLE","inputs":[],"outputs":[{"name":"","type":"bytes32","internalType":"bytes32"}],"stateMutability":"view"},{"type":"function","name":"MAX_SUPPLY","inputs":[],"outputs":[{"name":"","type":"uint256","internalType":"uint256"}],"stateMutability":"view"},{"type":"function","name":"MINTER_ROLE","inputs":[],"outputs":[{"name":"","type":"bytes32","internalType":"bytes32"}],"stateMutability":"view"},{"type":"function","name":"PAUSER_ROLE","inputs":[],"outputs":[{"name":"","type":"bytes32","internalType":"bytes32"}],"stateMutability":"view"},{"type":"function","name":"addMinter","inputs":[{"name":"minter","type":"address","internalType":"address"}],"outputs":[],"stateMutability":"nonpayable"},{"type":"function","name":"allowance","inputs":[{"name":"owner","type":"address","internalType":"address"},{"name":"spender","type":"address","internalType":"address"}],"outputs":[{"name":"","type":"uint256","internalType":"uint256"}],"stateMutability":"view"},{"type":"function","name":"approve","inputs":[{"name":"spender","type":"address","internalType":"address"},{"name":"value","type":"uint256","internalType":"uint256"}],"outputs":[{"name":"","type":"bool","internalType":"bool"}],"stateMutability":"nonpayable"},{"type":"function","name":"balanceOf","inputs":[{"name":"account","type":"address","internalType":"address"}],"outputs":[{"name":"","type":"uint256","internalType":"uint256"}],"stateMutability":"view"},{"type":"function","name":"burn","inputs":[{"name":"value","type":"uint256","internalType":"uint256"}],"outputs":[],"stateMutability":"nonpayable"},{"type":"function","name":"burnFrom","inputs":[{"name":"account","type":"address","internalType":"address"},{"name":"value","type":"uint256","internalType":"uint256"}],"outputs":[],"stateMutability":"nonpayable"},{"type":"function","name":"decimals","inputs":[],"outputs":[{"name":"","type":"uint8","internalType":"uint8"}],"stateMutability":"view"},{"type":"function","name":"getRoleAdmin","inputs":[{"name":"role","type":"bytes32","internalType":"bytes32"}],"outputs":[{"name":"","type":"bytes32","internalType":"bytes32"}],"stateMutability":"view"},{"type":"function","name":"grantRole","inputs":[{"name":"role","type":"bytes32","internalType":"bytes32"},{"name":"account","type":"address","internalType":"address"}],"outputs":[],"stateMutability":"nonpayable"},{"type":"function","name":"hasRole","inputs":[{"name":"role","type":"bytes32","internalType":"bytes32"},{"name":"account","type":"address","internalType":"address"}],"outputs":[{"name":"","type":"bool","internalType":"bool"}],"stateMutability":"view"},{"type":"function","name":"mint","inputs":[{"name":"to","type":"address","internalType":"address"},{"name":"amount","type":"uint256","internalType":"uint256"},{"name":"reason","type":"string","internalType":"string"}],"outputs":[],"stateMutability":"nonpayable"},{"type":"function","name":"name","inputs":[],"outputs":[{"name":"","type":"string","internalType":"string"}],"stateMutability":"view"},{"type":"function","name":"pause","inputs":[],"outputs":[],"stateMutability":"nonpayable"},{"type":"function","name":"paused","inputs":[],"outputs":[{"name":"","type":"bool","internalType":"bool"}],"stateMutability":"view"},{"type":"function","name":"remainingMintableSupply","inputs":[],"outputs":[{"name":"","type":"uint256","internalType":"uint256"}],"stateMutability":"view"},{"type":"function","name":"removeMinter","inputs":[{"name":"minter","type":"address","internalType":"address"}],"outputs":[],"stateMutability":"nonpayable"},{"type":"function","name":"renounceRole","inputs":[{"name":"role","type":"bytes32","internalType":"bytes32"},{"name":"callerConfirmation","type":"address","internalType":"address"}],"outputs":[],"stateMutability":"nonpayable"},{"type":"function","name":"revokeRole","inputs":[{"name":"role","type":"bytes32","internalType":"bytes32"},{"name":"account","type":"address","internalType":"address"}],"outputs":[],"stateMutability":"nonpayable"},{"type":"function","name":"supportsInterface","inputs":[{"name":"interfaceId","type":"bytes4","internalType":"bytes4"}],"outputs":[{"name":"","type":"bool","internalType":"bool"}],"stateMutability":"view"},{"type":"function","name":"symbol","inputs":[],"outputs":[{"name":"","type":"string","internalType":"string"}],"stateMutability":"view"},{"type":"function","name":"totalMinted","inputs":[],"outputs":[{"name":"","type":"uint256","internalType":"uint256"}],"stateMutability":"view"},{"type":"function","name":"totalSupply","inputs":[],"outputs":[{"name":"","type":"uint256","internalType":"uint256"}],"stateMutability":"view"},{"type":"function","name":"transfer","inputs":[{"name":"to","type":"address","internalType":"address"},{"name":"value","type":"uint256","internalType":"uint256"}],"outputs":[{"name":"","type":"bool","internalType":"bool"}],"stateMutability":"nonpayable"},{"type":"function","name":"transferFrom","inputs":[{"name":"from","type":"address","internalType":"address"},{"name":"to","type":"address","internalType":"address"},{"name":"value","type":"uint256","internalType":"uint256"}],"outputs":[{"name":"","type":"bool","internalType":"bool"}],"stateMutability":"nonpayable"},{"type":"function","name":"unpause","inputs":[],"outputs":[],"stateMutability":"nonpayable"},{"type":"event","name":"Approval","inputs":[{"name":"owner","type":"address","indexed":true,"internalType":"address"},{"name":"spender","type":"address","indexed":true,"internalType":"address"},{"name":"value","type":"uint256","indexed":false,"internalType":"uint256"}],"anonymous":false},{"type":"event","name":"MinterAdded","inputs":[{"name":"minter","type":"address","indexed":true,"internalType":"address"}],"anonymous":false},{"type":"event","name":"MinterRemoved","inputs":[{"name":"minter","type":"address","indexed":true,"internalType":"address"}],"anonymous":false},{"type":"event","name":"Paused","inputs":[{"name":"account","type":"address","indexed":false,"internalType":"address"}],"anonymous":false},{"type":"event","name":"RoleAdminChanged","inputs":[{"name":"role","type":"bytes32","indexed":true,"internalType":"bytes32"},{"name":"previousAdminRole","type":"bytes32","indexed":true,"internalType":"bytes32"},{"name":"newAdminRole","type":"bytes32","indexed":true,"internalType":"bytes32"}],"anonymous":false},{"type":"event","name":"RoleGranted","inputs":[{"name":"role","type":"bytes32","indexed":true,"internalType":"bytes32"},{"name":"account","type":"address","indexed":true,"internalType":"address"},{"name":"sender","type":"address","indexed":true,"internalType":"address"}],"anonymous":false},{"type":"event","name":"RoleRevoked","inputs":[{"name":"role","type":"bytes32","indexed":true,"internalType":"bytes32"},{"name":"account","type":"address","indexed":true,"internalType":"address"},{"name":"sender","type":"address","indexed":true,"internalType":"address"}],"anonymous":false},{"type":"event","name":"TokensMinted","inputs":[{"name":"to","type":"address","indexed":true,"internalType":"address"},{"name":"amount","type":"uint256","indexed":false,"internalType":"uint256"},{"name":"reason","type":"string","indexed":false,"internalType":"string"}],"anonymous":false},{"type":"event","name":"Transfer","inputs":[{"name":"from","type":"address","indexed":true,"internalType":"address"},{"name":"to","type":"address","indexed":true,"internalType":"address"},{"name":"value","type":"uint256","indexed":false,"internalType":"uint256"}],"anonymous":false},{"type":"event","name":"Unpaused","inputs":[{"name":"account","type":"address","indexed":false,"internalType":"address"}],"anonymous":false},{"type":"error","name":"AccessControlBadConfirmation","inputs":[]},{"type":"error","name":"AccessControlUnauthorizedAccount","inputs":[{"name":"account","type":"address","internalType":"address"},{"name":"neededRole","type":"bytes32","internalType":"bytes32"}]},{"type":"error","name":"ERC20InsufficientAllowance","inputs":[{"name":"spender","type":"address","internalType":"address"},{"name":"allowance","type":"uint256","internalType":"uint256"},{"name":"needed","type":"uint256","internalType":"uint256"}]},{"type":"error","name":"ERC20InsufficientBalance","inputs":[{"name":"sender","type":"address","internalType":"address"},{"name":"balance","type":"uint256","internalType":"uint256"},{"name":"needed","type":"uint256","internalType":"uint256"}]},{"type":"error","name":"ERC20InvalidApprover","inputs":[{"name":"approver","type":"address","internalType":"address"}]},{"type":"error","name":"ERC20InvalidReceiver","inputs":[{"name":"receiver","type":"address","internalType":"address"}]},{"type":"error","name":"ERC20InvalidSender","inputs":[{"name":"sender","type":"address","internalType":"address"}]},{"type":"error","name":"ERC20InvalidSpender","inputs":[{"name":"spender","type":"address","internalType":"address"}]},{"type":"error","name":"EnforcedPause","inputs":[]},{"type":"error","name":"ExpectedPause","inputs":[]},{"type":"error","name":"ReentrancyGuardReentrantCall","inputs":[]}],"bytecode":{"object":"0x608060405234801561000f575f5ffd5b506040518060400160405280600981526020017f4167656e74436f696e00000000000000000000000000000000000000000000008152506040518060400160405280600481526020017f41474e5400000000000000000000000000000000000000000000000000000000815250816003908161008b91906104ec565b50806004908161009b91906104ec565b50505060016100bc6100b161010b60201b60201c565b61013460201b60201c565b5f01819055506100d45f5f1b3361013d60201b60201c565b506101057f65d7a28e3265b37a6474929f336521b332c1681b933f6cb9f3376673440d862a3361013d60201b60201c565b506105bb565b5f7f9b779b17422d0df92223018b32b4d1fa46e071723d6817e2486d003becc55f005f1b905090565b5f819050919050565b5f61014e838361023360201b60201c565b61022957600160065f8581526020019081526020015f205f015f8473ffffffffffffffffffffffffffffffffffffffff1673ffffffffffffffffffffffffffffffffffffffff1681526020019081526020015f205f6101000a81548160ff0219169083151502179055506101c661029760201b60201c565b73ffffffffffffffffffffffffffffffffffffffff168273ffffffffffffffffffffffffffffffffffffffff16847f2f8788117e7eff1d82e926ec794901d17c78024a50270940304540a733656f0d60405160405180910390a46001905061022d565b5f90505b92915050565b5f60065f8481526020019081526020015f205f015f8373ffffffffffffffffffffffffffffffffffffffff1673ffffffffffffffffffffffffffffffffffffffff1681526020019081526020015f205f9054906101000a900460ff16905092915050565b5f33905090565b5f81519050919050565b7f4e487b71000000000000000000000000000000000000000000000000000000005f52604160045260245ffd5b7f4e487b71000000000000000000000000000000000000000000000000000000005f52602260045260245ffd5b5f600282049050600182168061031957607f821691505b60208210810361032c5761032b6102d5565b5b50919050565b5f819050815f5260205f209050919050565b5f6020601f8301049050919050565b5f82821b905092915050565b5f6008830261038e7fffffffffffffffffffffffffffffffffffffffffffffffffffffffffffffffff82610353565b6103988683610353565b95508019841693508086168417925050509392505050565b5f819050919050565b5f819050919050565b5f6103dc6103d76103d2846103b0565b6103b9565b6103b0565b9050919050565b5f819050919050565b6103f5836103c2565b610409610401826103e3565b84845461035f565b825550505050565b5f5f905090565b610420610411565b61042b8184846103ec565b505050565b5f5b82811015610451576104465f828401610418565b600181019050610432565b505050565b601f8211156104a457828211156104a35761047081610332565b61047983610344565b61048285610344565b602086101561048f575f90505b80830161049e82840382610430565b505050505b5b505050565b5f82821c905092915050565b5f6104c45f19846008026104a9565b1980831691505092915050565b5f6104dc83836104b5565b9150826002028217905092915050565b6104f58261029e565b67ffffffffffffffff81111561050e5761050d6102a8565b5b6105188254610302565b610523828285610456565b5f60209050601f831160018114610554575f8415610542578287015190505b61054c85826104d1565b8655506105b3565b601f19841661056286610332565b5f5b8281101561058957848901518255600182019150602085019450602081019050610564565b868310156105a657848901516105a2601f8916826104b5565b8355505b6001600288020188555050505b505050505050565b611fb9806105c85f395ff3fe608060405234801561000f575f5ffd5b50600436106101cd575f3560e01c80635c975abb11610102578063a217fddf116100a0578063d53913931161006f578063d539139314610507578063d547741f14610525578063dd62ed3e14610541578063e63ab1e914610571576101cd565b8063a217fddf1461047f578063a2309ff81461049d578063a9059cbb146104bb578063d3fc9864146104eb576101cd565b80638456cb59116100dc5780638456cb591461040b57806391d148541461041557806395d89b4114610445578063983b2d5614610463576101cd565b80635c975abb146103a157806370a08231146103bf57806379cc6790146103ef576101cd565b80633092afd51161016f578063349f0b9011610149578063349f0b901461034157806336568abe1461035f5780633f4ba83a1461037b57806342966c6814610385576101cd565b80633092afd5146102e9578063313ce5671461030557806332cb6b0c14610323576101cd565b806318160ddd116101ab57806318160ddd1461024f57806323b872dd1461026d578063248a9ca31461029d5780632f2ff15d146102cd576101cd565b806301ffc9a7146101d157806306fdde0314610201578063095ea7b31461021f575b5f5ffd5b6101eb60048036038101906101e691906118ae565b61058f565b6040516101f891906118f3565b60405180910390f35b610209610608565b604051610216919061197c565b60405180910390f35b61023960048036038101906102349190611a29565b610698565b60405161024691906118f3565b60405180910390f35b6102576106ba565b6040516102649190611a76565b60405180910390f35b61028760048036038101906102829190611a8f565b6106c3565b60405161029491906118f3565b60405180910390f35b6102b760048036038101906102b29190611b12565b6106f1565b6040516102c49190611b4c565b60405180910390f35b6102e760048036038101906102e29190611b65565b61070e565b005b61030360048036038101906102fe9190611ba3565b610730565b005b61030d6107ae565b60405161031a9190611be9565b60405180910390f35b61032b6107b6565b6040516103389190611a76565b60405180910390f35b6103496107c6565b6040516103569190611a76565b60405180910390f35b61037960048036038101906103749190611b65565b6107e6565b005b610383610861565b005b61039f600480360381019061039a9190611c02565b610896565b005b6103a96108aa565b6040516103b691906118f3565b60405180910390f35b6103d960048036038101906103d49190611ba3565b6108bf565b6040516103e69190611a76565b60405180910390f35b61040960048036038101906104049190611a29565b610904565b005b610413610924565b005b61042f600480360381019061042a9190611b65565b610959565b60405161043c91906118f3565b60405180910390f35b61044d6109bd565b60405161045a919061197c565b60405180910390f35b61047d60048036038101906104789190611ba3565b610a4d565b005b610487610acb565b6040516104949190611b4c565b60405180910390f35b6104a5610ad1565b6040516104b29190611a76565b60405180910390f35b6104d560048036038101906104d09190611a29565b610ad7565b6040516104e291906118f3565b60405180910390f35b61050560048036038101906105009190611c8e565b610af9565b005b61050f610c0a565b60405161051c9190611b4c565b60405180910390f35b61053f600480360381019061053a9190611b65565b610c2e565b005b61055b60048036038101906105569190611cff565b610c50565b6040516105689190611a76565b60405180910390f35b610579610cd2565b6040516105869190611b4c565b60405180910390f35b5f7f7965db0b000000000000000000000000000000000000000000000000000000007bffffffffffffffffffffffffffffffffffffffffffffffffffffffff1916827bffffffffffffffffffffffffffffffffffffffffffffffffffffffff19161480610601575061060082610cf6565b5b9050919050565b60606003805461061790611d6a565b80601f016020809104026020016040519081016040528092919081815260200182805461064390611d6a565b801561068e5780601f106106655761010080835404028352916020019161068e565b820191905f5260205f20905b81548152906001019060200180831161067157829003601f168201915b5050505050905090565b5f5f6106a2610d5f565b90506106af818585610d66565b600191505092915050565b5f600254905090565b5f5f6106cd610d5f565b90506106da858285610d78565b6106e5858585610e0b565b60019150509392505050565b5f60065f8381526020019081526020015f20600101549050919050565b610717826106f1565b61072081610efb565b61072a8383610f0f565b50505050565b5f5f1b61073c81610efb565b6107667f9f2df0fed2c77648de5860a4cc508cd0818c85b8b8a1ab4ceeef8d981c8956a683610ff9565b508173ffffffffffffffffffffffffffffffffffffffff167fe94479a9f7e1952cc78f2d6baab678adc1b772d936c6583def489e524cb6669260405160405180910390a25050565b5f6012905090565b6b033b2e3c9fd0803ce800000081565b5f6007546b033b2e3c9fd0803ce80000006107e19190611dc7565b905090565b6107ee610d5f565b73ffffffffffffffffffffffffffffffffffffffff168173ffffffffffffffffffffffffffffffffffffffff1614610852576040517f6697b23200000000000000000000000000000000000000000000000000000000815260040160405180910390fd5b61085c8282610ff9565b505050565b7f65d7a28e3265b37a6474929f336521b332c1681b933f6cb9f3376673440d862a61088b81610efb565b6108936110e3565b50565b6108a76108a1610d5f565b82611144565b50565b5f60055f9054906101000a900460ff16905090565b5f5f5f8373ffffffffffffffffffffffffffffffffffffffff1673ffffffffffffffffffffffffffffffffffffffff1681526020019081526020015f20549050919050565b61091682610910610d5f565b83610d78565b6109208282611144565b5050565b7f65d7a28e3265b37a6474929f336521b332c1681b933f6cb9f3376673440d862a61094e81610efb565b6109566111c3565b50565b5f60065f8481526020019081526020015f205f015f8373ffffffffffffffffffffffffffffffffffffffff1673ffffffffffffffffffffffffffffffffffffffff1681526020019081526020015f205f9054906101000a900460ff16905092915050565b6060600480546109cc90611d6a565b80601f01602080910402602001604051908101604052809291908181526020018280546109f890611d6a565b8015610a435780601f10610a1a57610100808354040283529160200191610a43565b820191905f5260205f20905b815481529060010190602001808311610a2657829003601f168201915b5050505050905090565b5f5f1b610a5981610efb565b610a837f9f2df0fed2c77648de5860a4cc508cd0818c85b8b8a1ab4ceeef8d981c8956a683610f0f565b508173ffffffffffffffffffffffffffffffffffffffff167f6ae172837ea30b801fbfcdd4108aa1d5bf8ff775444fd70256b44e6bf3dfc3f660405160405180910390a25050565b5f5f1b81565b60075481565b5f5f610ae1610d5f565b9050610aee818585610e0b565b600191505092915050565b7f9f2df0fed2c77648de5860a4cc508cd0818c85b8b8a1ab4ceeef8d981c8956a6610b2381610efb565b610b2b611225565b6b033b2e3c9fd0803ce800000084600754610b469190611dfa565b1115610b87576040517f08c379a0000000000000000000000000000000000000000000000000000000008152600401610b7e90611e77565b60405180910390fd5b8360075f828254610b989190611dfa565b92505081905550610ba98585611247565b8473ffffffffffffffffffffffffffffffffffffffff167f9d89e36eadf856db0ad9ffb5a569e07f95634dddd9501141ecf04820484ad0dc858585604051610bf393929190611ecf565b60405180910390a2610c036112c6565b5050505050565b7f9f2df0fed2c77648de5860a4cc508cd0818c85b8b8a1ab4ceeef8d981c8956a681565b610c37826106f1565b610c4081610efb565b610c4a8383610ff9565b50505050565b5f60015f8473ffffffffffffffffffffffffffffffffffffffff1673ffffffffffffffffffffffffffffffffffffffff1681526020019081526020015f205f8373ffffffffffffffffffffffffffffffffffffffff1673ffffffffffffffffffffffffffffffffffffffff1681526020019081526020015f2054905092915050565b7f65d7a28e3265b37a6474929f336521b332c1681b933f6cb9f3376673440d862a81565b5f7f01ffc9a7000000000000000000000000000000000000000000000000000000007bffffffffffffffffffffffffffffffffffffffffffffffffffffffff1916827bffffffffffffffffffffffffffffffffffffffffffffffffffffffff1916149050919050565b5f33905090565b610d7383838360016112e0565b505050565b5f610d838484610c50565b90507fffffffffffffffffffffffffffffffffffffffffffffffffffffffffffffffff811015610e055781811015610df6578281836040517ffb8f41b2000000000000000000000000000000000000000000000000000000008152600401610ded93929190611f0e565b60405180910390fd5b610e0484848484035f6112e0565b5b50505050565b5f73ffffffffffffffffffffffffffffffffffffffff168373ffffffffffffffffffffffffffffffffffffffff1603610e7b575f6040517f96c6fd1e000000000000000000000000000000000000000000000000000000008152600401610e729190611f43565b60405180910390fd5b5f73ffffffffffffffffffffffffffffffffffffffff168273ffffffffffffffffffffffffffffffffffffffff1603610eeb575f6040517fec442f05000000000000000000000000000000000000000000000000000000008152600401610ee29190611f43565b60405180910390fd5b610ef68383836114af565b505050565b610f0c81610f07610d5f565b6114bf565b50565b5f610f1a8383610959565b610fef57600160065f8581526020019081526020015f205f015f8473ffffffffffffffffffffffffffffffffffffffff1673ffffffffffffffffffffffffffffffffffffffff1681526020019081526020015f205f6101000a81548160ff021916908315150217905550610f8c610d5f565b73ffffffffffffffffffffffffffffffffffffffff168273ffffffffffffffffffffffffffffffffffffffff16847f2f8788117e7eff1d82e926ec794901d17c78024a50270940304540a733656f0d60405160405180910390a460019050610ff3565b5f90505b92915050565b5f6110048383610959565b156110d9575f60065f8581526020019081526020015f205f015f8473ffffffffffffffffffffffffffffffffffffffff1673ffffffffffffffffffffffffffffffffffffffff1681526020019081526020015f205f6101000a81548160ff021916908315150217905550611076610d5f565b73ffffffffffffffffffffffffffffffffffffffff168273ffffffffffffffffffffffffffffffffffffffff16847ff6391f5c32d9c69d2a47ea670b442974b53935d1edc7fd64eb21e047a839171b60405160405180910390a4600190506110dd565b5f90505b92915050565b6110eb611510565b5f60055f6101000a81548160ff0219169083151502179055507f5db9ee0a495bf2e6ff9c91a7834c1ba4fdd244a5e8aa4e537bd38aeae4b073aa61112d610d5f565b60405161113a9190611f43565b60405180910390a1565b5f73ffffffffffffffffffffffffffffffffffffffff168273ffffffffffffffffffffffffffffffffffffffff16036111b4575f6040517f96c6fd1e0000000000000000000000000000000000000000000000000000000081526004016111ab9190611f43565b60405180910390fd5b6111bf825f836114af565b5050565b6111cb611550565b600160055f6101000a81548160ff0219169083151502179055507f62e78cea01bee320cd4e420270b5ea74000d11b0c9f74754ebdbfc544b05a25861120e610d5f565b60405161121b9190611f43565b60405180910390a1565b61122d611591565b600261123f61123a6115d2565b6115fb565b5f0181905550565b5f73ffffffffffffffffffffffffffffffffffffffff168273ffffffffffffffffffffffffffffffffffffffff16036112b7575f6040517fec442f050000000000000000000000000000000000000000000000000000000081526004016112ae9190611f43565b60405180910390fd5b6112c25f83836114af565b5050565b60016112d86112d36115d2565b6115fb565b5f0181905550565b5f73ffffffffffffffffffffffffffffffffffffffff168473ffffffffffffffffffffffffffffffffffffffff1603611350575f6040517fe602df050000000000000000000000000000000000000000000000000000000081526004016113479190611f43565b60405180910390fd5b5f73ffffffffffffffffffffffffffffffffffffffff168373ffffffffffffffffffffffffffffffffffffffff16036113c0575f6040517f94280d620000000000000000000000000000000000000000000000000000000081526004016113b79190611f43565b60405180910390fd5b8160015f8673ffffffffffffffffffffffffffffffffffffffff1673ffffffffffffffffffffffffffffffffffffffff1681526020019081526020015f205f8573ffffffffffffffffffffffffffffffffffffffff1673ffffffffffffffffffffffffffffffffffffffff1681526020019081526020015f208190555080156114a9578273ffffffffffffffffffffffffffffffffffffffff168473ffffffffffffffffffffffffffffffffffffffff167f8c5be1e5ebec7d5bd14f71427d1e84f3dd0314c0f7b2291e5b200ac8c7c3b925846040516114a09190611a76565b60405180910390a35b50505050565b6114ba838383611604565b505050565b6114c98282610959565b61150c5780826040517fe2517d3f000000000000000000000000000000000000000000000000000000008152600401611503929190611f5c565b60405180910390fd5b5050565b6115186108aa565b61154e576040517f8dfc202b00000000000000000000000000000000000000000000000000000000815260040160405180910390fd5b565b6115586108aa565b1561158f576040517fd93c066500000000000000000000000000000000000000000000000000000000815260040160405180910390fd5b565b61159961161c565b156115d0576040517f3ee5aeb500000000000000000000000000000000000000000000000000000000815260040160405180910390fd5b565b5f7f9b779b17422d0df92223018b32b4d1fa46e071723d6817e2486d003becc55f005f1b905090565b5f819050919050565b61160c611550565b611617838383611638565b505050565b5f600261162f61162a6115d2565b6115fb565b5f015414905090565b5f73ffffffffffffffffffffffffffffffffffffffff168373ffffffffffffffffffffffffffffffffffffffff1603611688578060025f82825461167c9190611dfa565b92505081905550611756565b5f5f5f8573ffffffffffffffffffffffffffffffffffffffff1673ffffffffffffffffffffffffffffffffffffffff1681526020019081526020015f2054905081811015611711578381836040517fe450d38c00000000000000000000000000000000000000000000000000000000815260040161170893929190611f0e565b60405180910390fd5b8181035f5f8673ffffffffffffffffffffffffffffffffffffffff1673ffffffffffffffffffffffffffffffffffffffff1681526020019081526020015f2081905550505b5f73ffffffffffffffffffffffffffffffffffffffff168273ffffffffffffffffffffffffffffffffffffffff160361179d578060025f82825403925050819055506117e7565b805f5f8473ffffffffffffffffffffffffffffffffffffffff1673ffffffffffffffffffffffffffffffffffffffff1681526020019081526020015f205f82825401925050819055505b8173ffffffffffffffffffffffffffffffffffffffff168373ffffffffffffffffffffffffffffffffffffffff167fddf252ad1be2c89b69c2b068fc378daa952ba7f163c4a11628f55a4df523b3ef836040516118449190611a76565b60405180910390a3505050565b5f5ffd5b5f5ffd5b5f7fffffffff0000000000000000000000000000000000000000000000000000000082169050919050565b61188d81611859565b8114611897575f5ffd5b50565b5f813590506118a881611884565b92915050565b5f602082840312156118c3576118c2611851565b5b5f6118d08482850161189a565b91505092915050565b5f8115159050919050565b6118ed816118d9565b82525050565b5f6020820190506119065f8301846118e4565b92915050565b5f81519050919050565b5f82825260208201905092915050565b8281835e5f83830152505050565b5f601f19601f8301169050919050565b5f61194e8261190c565b6119588185611916565b9350611968818560208601611926565b61197181611934565b840191505092915050565b5f6020820190508181035f8301526119948184611944565b905092915050565b5f73ffffffffffffffffffffffffffffffffffffffff82169050919050565b5f6119c58261199c565b9050919050565b6119d5816119bb565b81146119df575f5ffd5b50565b5f813590506119f0816119cc565b92915050565b5f819050919050565b611a08816119f6565b8114611a12575f5ffd5b50565b5f81359050611a23816119ff565b92915050565b5f5f60408385031215611a3f57611a3e611851565b5b5f611a4c858286016119e2565b9250506020611a5d85828601611a15565b9150509250929050565b611a70816119f6565b82525050565b5f602082019050611a895f830184611a67565b92915050565b5f5f5f60608486031215611aa657611aa5611851565b5b5f611ab3868287016119e2565b9350506020611ac4868287016119e2565b9250506040611ad586828701611a15565b9150509250925092565b5f819050919050565b611af181611adf565b8114611afb575f5ffd5b50565b5f81359050611b0c81611ae8565b92915050565b5f60208284031215611b2757611b26611851565b5b5f611b3484828501611afe565b91505092915050565b611b4681611adf565b82525050565b5f602082019050611b5f5f830184611b3d565b92915050565b5f5f60408385031215611b7b57611b7a611851565b5b5f611b8885828601611afe565b9250506020611b99858286016119e2565b9150509250929050565b5f60208284031215611bb857611bb7611851565b5b5f611bc5848285016119e2565b91505092915050565b5f60ff82169050919050565b611be381611bce565b82525050565b5f602082019050611bfc5f830184611bda565b92915050565b5f60208284031215611c1757611c16611851565b5b5f611c2484828501611a15565b91505092915050565b5f5ffd5b5f5ffd5b5f5ffd5b5f5f83601f840112611c4e57611c4d611c2d565b5b8235905067ffffffffffffffff811115611c6b57611c6a611c31565b5b602083019150836001820283011115611c8757611c86611c35565b5b9250929050565b5f5f5f5f60608587031215611ca657611ca5611851565b5b5f611cb3878288016119e2565b9450506020611cc487828801611a15565b935050604085013567ffffffffffffffff811115611ce557611ce4611855565b5b611cf187828801611c39565b925092505092959194509250565b5f5f60408385031215611d1557611d14611851565b5b5f611d22858286016119e2565b9250506020611d33858286016119e2565b9150509250929050565b7f4e487b71000000000000000000000000000000000000000000000000000000005f52602260045260245ffd5b5f6002820490506001821680611d8157607f821691505b602082108103611d9457611d93611d3d565b5b50919050565b7f4e487b71000000000000000000000000000000000000000000000000000000005f52601160045260245ffd5b5f611dd1826119f6565b9150611ddc836119f6565b9250828203905081811115611df457611df3611d9a565b5b92915050565b5f611e04826119f6565b9150611e0f836119f6565b9250828201905080821115611e2757611e26611d9a565b5b92915050565b7f45786365656473206d617820737570706c7900000000000000000000000000005f82015250565b5f611e61601283611916565b9150611e6c82611e2d565b602082019050919050565b5f6020820190508181035f830152611e8e81611e55565b9050919050565b828183375f83830152505050565b5f611eae8385611916565b9350611ebb838584611e95565b611ec483611934565b840190509392505050565b5f604082019050611ee25f830186611a67565b8181036020830152611ef5818486611ea3565b9050949350505050565b611f08816119bb565b82525050565b5f606082019050611f215f830186611eff565b611f2e6020830185611a67565b611f3b6040830184611a67565b949350505050565b5f602082019050611f565f830184611eff565b92915050565b5f604082019050611f6f5f830185611eff565b611f7c6020830184611b3d565b939250505056fea2646970667358221220c0c6016813402f92ddf61ceb11e35755a23190ea69dfdfe847e2b043a2039fa564736f6c63430008210033","linkReferences":{}},"methodIdentifiers":{"DEFAULT_ADMIN_ROLE()":"a217fddf","MAX_SUPPLY()":"32cb6b0c","MINTER_ROLE()":"d5391393","PAUSER_ROLE()":"e63ab1e9","addMinter(address)":"983b2d56","allowance(address,address)":"dd62ed3e","approve(address,uint256)":"095ea7b3","balanceOf(address)":"70a08231","burn(uint256)":"42966c68","burnFrom(address,uint256)":"79cc6790","decimals()":"313ce567","getRoleAdmin(bytes32)":"248a9ca3","grantRole(bytes32,address)":"2f2ff15d","hasRole(bytes32,address)":"91d14854","mint(address,uint256,string)":"d3fc9864","name()":"06fdde03","pause()":"8456cb59","paused()":"5c975abb","remainingMintableSupply()":"349f0b90","removeMinter(address)":"3092afd5","renounceRole(bytes32,address)":"36568abe","revokeRole(bytes32,address)":"d547741f","supportsInterface(bytes4)":"01ffc9a7","symbol()":"95d89b41","totalMinted()":"a2309ff8","totalSupply()":"18160ddd","transfer(address,uint256)":"a9059cbb","transferFrom(address,address,uint256)":"23b872dd","unpause()":"3f4ba83a"},"id":0}